{
  "_format": "hh-sol-artifact-1",
  "contractName": "Trail",
  "sourceName": "contracts/Trail.sol",
  "abi": [
    {
      "inputs": [
        {
          "internalType": "contract VerifierInterface",
          "name": "_verifier",
          "type": "address"
        },
        {
          "internalType": "string",
          "name": "_name",
          "type": "string"
        },
        {
          "internalType": "string",
          "name": "_imageUrl",
          "type": "string"
        },
        {
          "components": [
            {
              "internalType": "uint256",
              "name": "maxLatitude",
              "type": "uint256"
            },
            {
              "internalType": "uint256",
              "name": "maxLongitude",
              "type": "uint256"
            },
            {
              "internalType": "uint256",
              "name": "minLatitude",
              "type": "uint256"
            },
            {
              "internalType": "uint256",
              "name": "minLongitude",
              "type": "uint256"
            }
          ],
          "internalType": "struct TrailLibrary.BoundingBox",
          "name": "_boundingBox",
          "type": "tuple"
        },
        {
          "components": [
            {
              "internalType": "uint256",
              "name": "startLatitude",
              "type": "uint256"
            },
            {
              "internalType": "uint256",
              "name": "startLongitude",
              "type": "uint256"
            },
            {
              "internalType": "uint256",
              "name": "endLatitude",
              "type": "uint256"
            },
            {
              "internalType": "uint256",
              "name": "endLongitude",
              "type": "uint256"
            }
          ],
          "internalType": "struct TrailLibrary.TrailPath",
          "name": "_trailPath",
          "type": "tuple"
        },
        {
          "internalType": "contract TrailFactory",
          "name": "_factory",
          "type": "address"
        }
      ],
      "stateMutability": "nonpayable",
      "type": "constructor"
    },
    {
      "inputs": [],
      "name": "boundingBox",
      "outputs": [
        {
          "internalType": "uint256",
          "name": "maxLatitude",
          "type": "uint256"
        },
        {
          "internalType": "uint256",
          "name": "maxLongitude",
          "type": "uint256"
        },
        {
          "internalType": "uint256",
          "name": "minLatitude",
          "type": "uint256"
        },
        {
          "internalType": "uint256",
          "name": "minLongitude",
          "type": "uint256"
        }
      ],
      "stateMutability": "view",
      "type": "function"
    },
    {
      "inputs": [
        {
          "components": [
            {
              "internalType": "uint256[2]",
              "name": "a",
              "type": "uint256[2]"
            },
            {
              "internalType": "uint256[2][2]",
              "name": "b",
              "type": "uint256[2][2]"
            },
            {
              "internalType": "uint256[2]",
              "name": "c",
              "type": "uint256[2]"
            },
            {
              "internalType": "uint256[1]",
              "name": "input",
              "type": "uint256[1]"
            }
          ],
          "internalType": "struct Trail.ProofInputs",
          "name": "proof",
          "type": "tuple"
        }
      ],
      "name": "hike",
      "outputs": [],
      "stateMutability": "nonpayable",
      "type": "function"
    },
    {
      "inputs": [],
      "name": "imageUrl",
      "outputs": [
        {
          "internalType": "string",
          "name": "",
          "type": "string"
        }
      ],
      "stateMutability": "view",
      "type": "function"
    },
    {
      "inputs": [],
      "name": "name",
      "outputs": [
        {
          "internalType": "string",
          "name": "",
          "type": "string"
        }
      ],
      "stateMutability": "view",
      "type": "function"
    },
    {
      "inputs": [],
      "name": "trailDAONFT",
      "outputs": [
        {
          "internalType": "contract TrailDAONFT",
          "name": "",
          "type": "address"
        }
      ],
      "stateMutability": "view",
      "type": "function"
    },
    {
      "inputs": [],
      "name": "trailPath",
      "outputs": [
        {
          "internalType": "uint256",
          "name": "startLatitude",
          "type": "uint256"
        },
        {
          "internalType": "uint256",
          "name": "startLongitude",
          "type": "uint256"
        },
        {
          "internalType": "uint256",
          "name": "endLatitude",
          "type": "uint256"
        },
        {
          "internalType": "uint256",
          "name": "endLongitude",
          "type": "uint256"
        }
      ],
      "stateMutability": "view",
      "type": "function"
    },
    {
      "inputs": [],
      "name": "trailToken",
      "outputs": [
        {
          "internalType": "contract TrailToken",
          "name": "",
          "type": "address"
        }
      ],
      "stateMutability": "view",
      "type": "function"
    },
    {
      "inputs": [],
      "name": "verifier",
      "outputs": [
        {
          "internalType": "contract VerifierInterface",
          "name": "",
          "type": "address"
        }
      ],
      "stateMutability": "view",
      "type": "function"
    }
  ],
  "bytecode": "0x60806040523480156200001157600080fd5b50604051620014ed380380620014ed833981810160405281019062000037919062000581565b84600090805190602001906200004f92919062000296565b5083600190805190602001906200006892919062000296565b5085600c60006101000a81548173ffffffffffffffffffffffffffffffffffffffff021916908373ffffffffffffffffffffffffffffffffffffffff16021790555082600660008201518160000155602082015181600101556040820151816002015560608201518160030155905050816002600082015181600001556020820151816001015560408201518160020155606082015181600301559050508073ffffffffffffffffffffffffffffffffffffffff166387263f166040518163ffffffff1660e01b815260040160206040518083038186803b1580156200014d57600080fd5b505afa15801562000162573d6000803e3d6000fd5b505050506040513d601f19601f8201168201806040525081019062000188919062000555565b600a60006101000a81548173ffffffffffffffffffffffffffffffffffffffff021916908373ffffffffffffffffffffffffffffffffffffffff1602179055508073ffffffffffffffffffffffffffffffffffffffff16634fe1de3b6040518163ffffffff1660e01b815260040160206040518083038186803b1580156200020f57600080fd5b505afa15801562000224573d6000803e3d6000fd5b505050506040513d601f19601f820116820180604052508101906200024a919062000529565b600b60006101000a81548173ffffffffffffffffffffffffffffffffffffffff021916908373ffffffffffffffffffffffffffffffffffffffff160217905550505050505050620008cb565b828054620002a4906200076e565b90600052602060002090601f016020900481019282620002c8576000855562000314565b82601f10620002e357805160ff191683800117855562000314565b8280016001018555821562000314579182015b8281111562000313578251825591602001919060010190620002f6565b5b50905062000323919062000327565b5090565b5b808211156200034257600081600090555060010162000328565b5090565b60006200035d620003578462000674565b6200064b565b9050828152602081018484840111156200037657600080fd5b6200038384828562000738565b509392505050565b6000815190506200039c8162000849565b92915050565b600081519050620003b38162000863565b92915050565b600081519050620003ca816200087d565b92915050565b600081519050620003e18162000897565b92915050565b600082601f830112620003f957600080fd5b81516200040b84826020860162000346565b91505092915050565b6000608082840312156200042757600080fd5b6200043360806200064b565b90506000620004458482850162000512565b60008301525060206200045b8482850162000512565b6020830152506040620004718482850162000512565b6040830152506060620004878482850162000512565b60608301525092915050565b600060808284031215620004a657600080fd5b620004b260806200064b565b90506000620004c48482850162000512565b6000830152506020620004da8482850162000512565b6020830152506040620004f08482850162000512565b6040830152506060620005068482850162000512565b60608301525092915050565b6000815190506200052381620008b1565b92915050565b6000602082840312156200053c57600080fd5b60006200054c848285016200038b565b91505092915050565b6000602082840312156200056857600080fd5b60006200057884828501620003b9565b91505092915050565b60008060008060008061018087890312156200059c57600080fd5b6000620005ac89828a01620003d0565b965050602087015167ffffffffffffffff811115620005ca57600080fd5b620005d889828a01620003e7565b955050604087015167ffffffffffffffff811115620005f657600080fd5b6200060489828a01620003e7565b94505060606200061789828a0162000414565b93505060e06200062a89828a0162000493565b9250506101606200063e89828a01620003a2565b9150509295509295509295565b6000620006576200066a565b9050620006658282620007a4565b919050565b6000604051905090565b600067ffffffffffffffff82111562000692576200069162000809565b5b6200069d8262000838565b9050602081019050919050565b6000620006b7826200070e565b9050919050565b6000620006cb82620006aa565b9050919050565b6000620006df82620006aa565b9050919050565b6000620006f382620006aa565b9050919050565b60006200070782620006aa565b9050919050565b600073ffffffffffffffffffffffffffffffffffffffff82169050919050565b6000819050919050565b60005b83811015620007585780820151818401526020810190506200073b565b8381111562000768576000848401525b50505050565b600060028204905060018216806200078757607f821691505b602082108114156200079e576200079d620007da565b5b50919050565b620007af8262000838565b810181811067ffffffffffffffff82111715620007d157620007d062000809565b5b80604052505050565b7f4e487b7100000000000000000000000000000000000000000000000000000000600052602260045260246000fd5b7f4e487b7100000000000000000000000000000000000000000000000000000000600052604160045260246000fd5b6000601f19601f8301169050919050565b6200085481620006be565b81146200086057600080fd5b50565b6200086e81620006d2565b81146200087a57600080fd5b50565b6200088881620006e6565b81146200089457600080fd5b50565b620008a281620006fa565b8114620008ae57600080fd5b50565b620008bc816200072e565b8114620008c857600080fd5b50565b610c1280620008db6000396000f3fe608060405234801561001057600080fd5b50600436106100885760003560e01c806387263f161161005b57806387263f1614610103578063aba8315014610121578063d663f1831461013f578063f17b51bd1461016057610088565b806306fdde031461008d5780631c85eec7146100ab5780632b7ac3f3146100c75780634fe1de3b146100e5575b600080fd5b610095610181565b6040516100a291906108e7565b60405180910390f35b6100c560048036038101906100c09190610638565b61020f565b005b6100cf61048d565b6040516100dc91906108cc565b60405180910390f35b6100ed6104b3565b6040516100fa9190610896565b60405180910390f35b61010b6104d9565b60405161011891906108b1565b60405180910390f35b6101296104ff565b60405161013691906108e7565b60405180910390f35b61014761058d565b6040516101579493929190610949565b60405180910390f35b6101686105ab565b6040516101789493929190610949565b60405180910390f35b6000805461018e90610aea565b80601f01602080910402602001604051908101604052809291908181526020018280546101ba90610aea565b80156102075780601f106101dc57610100808354040283529160200191610207565b820191906000526020600020905b8154815290600101906020018083116101ea57829003601f168201915b505050505081565b6000600b60009054906101000a900473ffffffffffffffffffffffffffffffffffffffff1673ffffffffffffffffffffffffffffffffffffffff166370a08231336040518263ffffffff1660e01b815260040161026c919061080b565b60206040518083038186803b15801561028457600080fd5b505afa158015610298573d6000803e3d6000fd5b505050506040513d601f19601f820116820180604052508101906102bc9190610662565b116102fc576040517f08c379a00000000000000000000000000000000000000000000000000000000081526004016102f390610909565b60405180910390fd5b600c60009054906101000a900473ffffffffffffffffffffffffffffffffffffffff1673ffffffffffffffffffffffffffffffffffffffff166343753b4d82600001836040018460c00185610100016040518563ffffffff1660e01b815260040161036a949392919061084f565b60206040518083038186803b15801561038257600080fd5b505afa158015610396573d6000803e3d6000fd5b505050506040513d601f19601f820116820180604052508101906103ba919061060f565b6103f9576040517f08c379a00000000000000000000000000000000000000000000000000000000081526004016103f090610929565b60405180910390fd5b600a60009054906101000a900473ffffffffffffffffffffffffffffffffffffffff1673ffffffffffffffffffffffffffffffffffffffff166340c10f19336103e86040518363ffffffff1660e01b8152600401610458929190610826565b600060405180830381600087803b15801561047257600080fd5b505af1158015610486573d6000803e3d6000fd5b5050505050565b600c60009054906101000a900473ffffffffffffffffffffffffffffffffffffffff1681565b600b60009054906101000a900473ffffffffffffffffffffffffffffffffffffffff1681565b600a60009054906101000a900473ffffffffffffffffffffffffffffffffffffffff1681565b6001805461050c90610aea565b80601f016020809104026020016040519081016040528092919081815260200182805461053890610aea565b80156105855780601f1061055a57610100808354040283529160200191610585565b820191906000526020600020905b81548152906001019060200180831161056857829003601f168201915b505050505081565b60028060000154908060010154908060020154908060030154905084565b60068060000154908060010154908060020154908060030154905084565b6000815190506105d881610bae565b92915050565b600061012082840312156105f157600080fd5b81905092915050565b60008151905061060981610bc5565b92915050565b60006020828403121561062157600080fd5b600061062f848285016105c9565b91505092915050565b6000610120828403121561064b57600080fd5b6000610659848285016105de565b91505092915050565b60006020828403121561067457600080fd5b6000610682848285016105fa565b91505092915050565b60006106978383610721565b60408301905092915050565b6106ac816109e2565b82525050565b6106bb81610998565b6106c581846109bb565b92506106d08261098e565b8060005b83811015610709576106e682846109d7565b6106f0878261068b565b96506106fb836109ae565b9250506001810190506106d4565b505050505050565b61071d60208383610aa8565b5050565b61072d60408383610aa8565b5050565b61073d60408383610aa8565b5050565b61074a81610a2a565b82525050565b61075981610a4e565b82525050565b61076881610a72565b82525050565b61077781610a96565b82525050565b6000610788826109a3565b61079281856109c6565b93506107a2818560208601610ab7565b6107ab81610b4b565b840191505092915050565b60006107c3600b836109c6565b91506107ce82610b5c565b602082019050919050565b60006107e6600c836109c6565b91506107f182610b85565b602082019050919050565b61080581610a20565b82525050565b600060208201905061082060008301846106a3565b92915050565b600060408201905061083b60008301856106a3565b610848602083018461076e565b9392505050565b6000610120820190506108656000830187610731565b61087260408301866106b2565b61087f60c0830185610731565b61088d610100830184610711565b95945050505050565b60006020820190506108ab6000830184610741565b92915050565b60006020820190506108c66000830184610750565b92915050565b60006020820190506108e1600083018461075f565b92915050565b60006020820190508181036000830152610901818461077d565b905092915050565b60006020820190508181036000830152610922816107b6565b9050919050565b60006020820190508181036000830152610942816107d9565b9050919050565b600060808201905061095e60008301876107fc565b61096b60208301866107fc565b61097860408301856107fc565b61098560608301846107fc565b95945050505050565b6000819050919050565b600060029050919050565b600081519050919050565b6000604082019050919050565b600081905092915050565b600082825260208201905092915050565b600082905092915050565b60006109ed82610a00565b9050919050565b60008115159050919050565b600073ffffffffffffffffffffffffffffffffffffffff82169050919050565b6000819050919050565b6000610a3582610a3c565b9050919050565b6000610a4782610a00565b9050919050565b6000610a5982610a60565b9050919050565b6000610a6b82610a00565b9050919050565b6000610a7d82610a84565b9050919050565b6000610a8f82610a00565b9050919050565b6000610aa182610a20565b9050919050565b82818337600083830152505050565b60005b83811015610ad5578082015181840152602081019050610aba565b83811115610ae4576000848401525b50505050565b60006002820490506001821680610b0257607f821691505b60208210811415610b1657610b15610b1c565b5b50919050565b7f4e487b7100000000000000000000000000000000000000000000000000000000600052602260045260246000fd5b6000601f19601f8301169050919050565b7f4d696e7420616e204e4654000000000000000000000000000000000000000000600082015250565b7f4f7574206f662072616e67650000000000000000000000000000000000000000600082015250565b610bb7816109f4565b8114610bc257600080fd5b50565b610bce81610a20565b8114610bd957600080fd5b5056fea26469706673582212200c5d661a8b2afaf46a103a1b874ed8e27b951ade476b4eba326c76bfc787949664736f6c63430008040033",
  "linkReferences": {},
  "deployedLinkReferences": {}
}