{
  "_format": "hh-sol-artifact-1",
  "contractName": "TrailToken",
  "sourceName": "contracts/TrailToken.sol",
  "abi": [
    {
      "inputs": [
        {
          "internalType": "string",
          "name": "name",
          "type": "string"
        },
        {
          "internalType": "string",
          "name": "symbol",
          "type": "string"
        }
      ],
      "stateMutability": "nonpayable",
      "type": "constructor"
    },
    {
      "anonymous": false,
      "inputs": [
        {
          "indexed": true,
          "internalType": "address",
          "name": "owner",
          "type": "address"
        },
        {
          "indexed": true,
          "internalType": "address",
          "name": "spender",
          "type": "address"
        },
        {
          "indexed": false,
          "internalType": "uint256",
          "name": "value",
          "type": "uint256"
        }
      ],
      "name": "Approval",
      "type": "event"
    },
    {
      "anonymous": false,
      "inputs": [
        {
          "indexed": true,
          "internalType": "address",
          "name": "previousOwner",
          "type": "address"
        },
        {
          "indexed": true,
          "internalType": "address",
          "name": "newOwner",
          "type": "address"
        }
      ],
      "name": "OwnershipTransferred",
      "type": "event"
    },
    {
      "anonymous": false,
      "inputs": [
        {
          "indexed": true,
          "internalType": "address",
          "name": "from",
          "type": "address"
        },
        {
          "indexed": true,
          "internalType": "address",
          "name": "to",
          "type": "address"
        },
        {
          "indexed": false,
          "internalType": "uint256",
          "name": "value",
          "type": "uint256"
        }
      ],
      "name": "Transfer",
      "type": "event"
    },
    {
      "inputs": [
        {
          "internalType": "address",
          "name": "owner",
          "type": "address"
        },
        {
          "internalType": "address",
          "name": "spender",
          "type": "address"
        }
      ],
      "name": "allowance",
      "outputs": [
        {
          "internalType": "uint256",
          "name": "",
          "type": "uint256"
        }
      ],
      "stateMutability": "view",
      "type": "function"
    },
    {
      "inputs": [
        {
          "internalType": "address",
          "name": "spender",
          "type": "address"
        },
        {
          "internalType": "uint256",
          "name": "amount",
          "type": "uint256"
        }
      ],
      "name": "approve",
      "outputs": [
        {
          "internalType": "bool",
          "name": "",
          "type": "bool"
        }
      ],
      "stateMutability": "nonpayable",
      "type": "function"
    },
    {
      "inputs": [
        {
          "internalType": "address",
          "name": "account",
          "type": "address"
        }
      ],
      "name": "balanceOf",
      "outputs": [
        {
          "internalType": "uint256",
          "name": "",
          "type": "uint256"
        }
      ],
      "stateMutability": "view",
      "type": "function"
    },
    {
      "inputs": [],
      "name": "decimals",
      "outputs": [
        {
          "internalType": "uint8",
          "name": "",
          "type": "uint8"
        }
      ],
      "stateMutability": "view",
      "type": "function"
    },
    {
      "inputs": [
        {
          "internalType": "address",
          "name": "spender",
          "type": "address"
        },
        {
          "internalType": "uint256",
          "name": "subtractedValue",
          "type": "uint256"
        }
      ],
      "name": "decreaseAllowance",
      "outputs": [
        {
          "internalType": "bool",
          "name": "",
          "type": "bool"
        }
      ],
      "stateMutability": "nonpayable",
      "type": "function"
    },
    {
      "inputs": [
        {
          "internalType": "address",
          "name": "spender",
          "type": "address"
        },
        {
          "internalType": "uint256",
          "name": "addedValue",
          "type": "uint256"
        }
      ],
      "name": "increaseAllowance",
      "outputs": [
        {
          "internalType": "bool",
          "name": "",
          "type": "bool"
        }
      ],
      "stateMutability": "nonpayable",
      "type": "function"
    },
    {
      "inputs": [
        {
          "internalType": "address",
          "name": "account",
          "type": "address"
        },
        {
          "internalType": "uint256",
          "name": "amount",
          "type": "uint256"
        }
      ],
      "name": "mint",
      "outputs": [],
      "stateMutability": "nonpayable",
      "type": "function"
    },
    {
      "inputs": [],
      "name": "name",
      "outputs": [
        {
          "internalType": "string",
          "name": "",
          "type": "string"
        }
      ],
      "stateMutability": "view",
      "type": "function"
    },
    {
      "inputs": [],
      "name": "owner",
      "outputs": [
        {
          "internalType": "address",
          "name": "",
          "type": "address"
        }
      ],
      "stateMutability": "view",
      "type": "function"
    },
    {
      "inputs": [],
      "name": "renounceOwnership",
      "outputs": [],
      "stateMutability": "nonpayable",
      "type": "function"
    },
    {
      "inputs": [
        {
          "internalType": "contract TrailFactory",
          "name": "_trailFactory",
          "type": "address"
        }
      ],
      "name": "setTrailFactory",
      "outputs": [],
      "stateMutability": "nonpayable",
      "type": "function"
    },
    {
      "inputs": [],
      "name": "symbol",
      "outputs": [
        {
          "internalType": "string",
          "name": "",
          "type": "string"
        }
      ],
      "stateMutability": "view",
      "type": "function"
    },
    {
      "inputs": [],
      "name": "totalSupply",
      "outputs": [
        {
          "internalType": "uint256",
          "name": "",
          "type": "uint256"
        }
      ],
      "stateMutability": "view",
      "type": "function"
    },
    {
      "inputs": [],
      "name": "trailFactory",
      "outputs": [
        {
          "internalType": "contract TrailFactory",
          "name": "",
          "type": "address"
        }
      ],
      "stateMutability": "view",
      "type": "function"
    },
    {
      "inputs": [
        {
          "internalType": "address",
          "name": "to",
          "type": "address"
        },
        {
          "internalType": "uint256",
          "name": "amount",
          "type": "uint256"
        }
      ],
      "name": "transfer",
      "outputs": [
        {
          "internalType": "bool",
          "name": "",
          "type": "bool"
        }
      ],
      "stateMutability": "nonpayable",
      "type": "function"
    },
    {
      "inputs": [
        {
          "internalType": "address",
          "name": "from",
          "type": "address"
        },
        {
          "internalType": "address",
          "name": "to",
          "type": "address"
        },
        {
          "internalType": "uint256",
          "name": "amount",
          "type": "uint256"
        }
      ],
      "name": "transferFrom",
      "outputs": [
        {
          "internalType": "bool",
          "name": "",
          "type": "bool"
        }
      ],
      "stateMutability": "nonpayable",
      "type": "function"
    },
    {
      "inputs": [
        {
          "internalType": "address",
          "name": "newOwner",
          "type": "address"
        }
      ],
      "name": "transferOwnership",
      "outputs": [],
      "stateMutability": "nonpayable",
      "type": "function"
    }
  ],
  "bytecode": "0x60806040523480156200001157600080fd5b5060405162002545380380620025458339818101604052810190620000379190620003a4565b818181600390805190602001906200005192919062000282565b5080600490805190602001906200006a92919062000282565b5050506200008d62000081620000e260201b60201c565b620000ea60201b60201c565b620000da6040518060400160405280601a81526020017f547261696c546f6b656e206465706c6f7965642025732c2025730000000000008152508383620001b060201b62000b9b1760201c565b505062000636565b600033905090565b6000600560009054906101000a900473ffffffffffffffffffffffffffffffffffffffff16905081600560006101000a81548173ffffffffffffffffffffffffffffffffffffffff021916908373ffffffffffffffffffffffffffffffffffffffff1602179055508173ffffffffffffffffffffffffffffffffffffffff168173ffffffffffffffffffffffffffffffffffffffff167f8be0079c531659141344cd1fd0a4f28419497f9722a3daafe3b4186f6b6457e060405160405180910390a35050565b62000254838383604051602401620001cb9392919062000458565b6040516020818303038152906040527f2ced7cef000000000000000000000000000000000000000000000000000000007bffffffffffffffffffffffffffffffffffffffffffffffffffffffff19166020820180517bffffffffffffffffffffffffffffffffffffffffffffffffffffffff83818316178352505050506200025960201b60201c565b505050565b60008151905060006a636f6e736f6c652e6c6f679050602083016000808483855afa5050505050565b82805462000290906200055b565b90600052602060002090601f016020900481019282620002b4576000855562000300565b82601f10620002cf57805160ff191683800117855562000300565b8280016001018555821562000300579182015b82811115620002ff578251825591602001919060010190620002e2565b5b5090506200030f919062000313565b5090565b5b808211156200032e57600081600090555060010162000314565b5090565b6000620003496200034384620004d3565b620004aa565b9050828152602081018484840111156200036257600080fd5b6200036f84828562000525565b509392505050565b600082601f8301126200038957600080fd5b81516200039b84826020860162000332565b91505092915050565b60008060408385031215620003b857600080fd5b600083015167ffffffffffffffff811115620003d357600080fd5b620003e18582860162000377565b925050602083015167ffffffffffffffff811115620003ff57600080fd5b6200040d8582860162000377565b9150509250929050565b6000620004248262000509565b62000430818562000514565b93506200044281856020860162000525565b6200044d8162000625565b840191505092915050565b6000606082019050818103600083015262000474818662000417565b905081810360208301526200048a818562000417565b90508181036040830152620004a0818462000417565b9050949350505050565b6000620004b6620004c9565b9050620004c4828262000591565b919050565b6000604051905090565b600067ffffffffffffffff821115620004f157620004f0620005f6565b5b620004fc8262000625565b9050602081019050919050565b600081519050919050565b600082825260208201905092915050565b60005b838110156200054557808201518184015260208101905062000528565b8381111562000555576000848401525b50505050565b600060028204905060018216806200057457607f821691505b602082108114156200058b576200058a620005c7565b5b50919050565b6200059c8262000625565b810181811067ffffffffffffffff82111715620005be57620005bd620005f6565b5b80604052505050565b7f4e487b7100000000000000000000000000000000000000000000000000000000600052602260045260246000fd5b7f4e487b7100000000000000000000000000000000000000000000000000000000600052604160045260246000fd5b6000601f19601f8301169050919050565b611eff80620006466000396000f3fe608060405234801561001057600080fd5b506004361061010b5760003560e01c8063715018a6116100a2578063a457c2d711610071578063a457c2d7146102aa578063a9059cbb146102da578063c0739a3d1461030a578063dd62ed3e14610326578063f2fde38b146103565761010b565b8063715018a6146102465780638da5cb5b146102505780638ff8fb701461026e57806395d89b411461028c5761010b565b8063313ce567116100de578063313ce567146101ac57806339509351146101ca57806340c10f19146101fa57806370a08231146102165761010b565b806306fdde0314610110578063095ea7b31461012e57806318160ddd1461015e57806323b872dd1461017c575b600080fd5b610118610372565b6040516101259190611782565b60405180910390f35b6101486004803603810190610143919061147b565b610404565b604051610155919061174c565b60405180910390f35b610166610427565b6040516101739190611970565b60405180910390f35b6101966004803603810190610191919061142c565b610431565b6040516101a3919061174c565b60405180910390f35b6101b4610460565b6040516101c1919061198b565b60405180910390f35b6101e460048036038101906101df919061147b565b610469565b6040516101f1919061174c565b60405180910390f35b610214600480360381019061020f919061147b565b610513565b005b610230600480360381019061022b91906113c7565b61069d565b60405161023d9190611970565b60405180910390f35b61024e6106e5565b005b61025861076d565b6040516102659190611731565b60405180910390f35b610276610797565b6040516102839190611767565b60405180910390f35b6102946107bd565b6040516102a19190611782565b60405180910390f35b6102c460048036038101906102bf919061147b565b61084f565b6040516102d1919061174c565b60405180910390f35b6102f460048036038101906102ef919061147b565b610939565b604051610301919061174c565b60405180910390f35b610324600480360381019061031f91906114e0565b61095c565b005b610340600480360381019061033b91906113f0565b610a1c565b60405161034d9190611970565b60405180910390f35b610370600480360381019061036b91906113c7565b610aa3565b005b60606003805461038190611ad6565b80601f01602080910402602001604051908101604052809291908181526020018280546103ad90611ad6565b80156103fa5780601f106103cf576101008083540402835291602001916103fa565b820191906000526020600020905b8154815290600101906020018083116103dd57829003601f168201915b5050505050905090565b60008061040f610c3a565b905061041c818585610c42565b600191505092915050565b6000600254905090565b60008061043c610c3a565b9050610449858285610e0d565b610454858585610e99565b60019150509392505050565b60006012905090565b600080610474610c3a565b9050610508818585600160008673ffffffffffffffffffffffffffffffffffffffff1673ffffffffffffffffffffffffffffffffffffffff16815260200190815260200160002060008973ffffffffffffffffffffffffffffffffffffffff1673ffffffffffffffffffffffffffffffffffffffff1681526020019081526020016000205461050391906119c2565b610c42565b600191505092915050565b600073ffffffffffffffffffffffffffffffffffffffff16600660009054906101000a900473ffffffffffffffffffffffffffffffffffffffff1673ffffffffffffffffffffffffffffffffffffffff1614156105a5576040517f08c379a000000000000000000000000000000000000000000000000000000000815260040161059c906118b0565b60405180910390fd5b600660009054906101000a900473ffffffffffffffffffffffffffffffffffffffff1673ffffffffffffffffffffffffffffffffffffffff166327c089a1336040518263ffffffff1660e01b81526004016106009190611731565b60206040518083038186803b15801561061857600080fd5b505afa15801561062c573d6000803e3d6000fd5b505050506040513d601f19601f8201168201806040525081019061065091906114b7565b61068f576040517f08c379a000000000000000000000000000000000000000000000000000000000815260040161068690611850565b60405180910390fd5b610699828261111a565b5050565b60008060008373ffffffffffffffffffffffffffffffffffffffff1673ffffffffffffffffffffffffffffffffffffffff168152602001908152602001600020549050919050565b6106ed610c3a565b73ffffffffffffffffffffffffffffffffffffffff1661070b61076d565b73ffffffffffffffffffffffffffffffffffffffff1614610761576040517f08c379a0000000000000000000000000000000000000000000000000000000008152600401610758906118d0565b60405180910390fd5b61076b600061127a565b565b6000600560009054906101000a900473ffffffffffffffffffffffffffffffffffffffff16905090565b600660009054906101000a900473ffffffffffffffffffffffffffffffffffffffff1681565b6060600480546107cc90611ad6565b80601f01602080910402602001604051908101604052809291908181526020018280546107f890611ad6565b80156108455780601f1061081a57610100808354040283529160200191610845565b820191906000526020600020905b81548152906001019060200180831161082857829003601f168201915b5050505050905090565b60008061085a610c3a565b90506000600160008373ffffffffffffffffffffffffffffffffffffffff1673ffffffffffffffffffffffffffffffffffffffff16815260200190815260200160002060008673ffffffffffffffffffffffffffffffffffffffff1673ffffffffffffffffffffffffffffffffffffffff16815260200190815260200160002054905083811015610920576040517f08c379a000000000000000000000000000000000000000000000000000000000815260040161091790611930565b60405180910390fd5b61092d8286868403610c42565b60019250505092915050565b600080610944610c3a565b9050610951818585610e99565b600191505092915050565b610964610c3a565b73ffffffffffffffffffffffffffffffffffffffff1661098261076d565b73ffffffffffffffffffffffffffffffffffffffff16146109d8576040517f08c379a00000000000000000000000000000000000000000000000000000000081526004016109cf906118d0565b60405180910390fd5b80600660006101000a81548173ffffffffffffffffffffffffffffffffffffffff021916908373ffffffffffffffffffffffffffffffffffffffff16021790555050565b6000600160008473ffffffffffffffffffffffffffffffffffffffff1673ffffffffffffffffffffffffffffffffffffffff16815260200190815260200160002060008373ffffffffffffffffffffffffffffffffffffffff1673ffffffffffffffffffffffffffffffffffffffff16815260200190815260200160002054905092915050565b610aab610c3a565b73ffffffffffffffffffffffffffffffffffffffff16610ac961076d565b73ffffffffffffffffffffffffffffffffffffffff1614610b1f576040517f08c379a0000000000000000000000000000000000000000000000000000000008152600401610b16906118d0565b60405180910390fd5b600073ffffffffffffffffffffffffffffffffffffffff168173ffffffffffffffffffffffffffffffffffffffff161415610b8f576040517f08c379a0000000000000000000000000000000000000000000000000000000008152600401610b8690611810565b60405180910390fd5b610b988161127a565b50565b610c35838383604051602401610bb3939291906117a4565b6040516020818303038152906040527f2ced7cef000000000000000000000000000000000000000000000000000000007bffffffffffffffffffffffffffffffffffffffffffffffffffffffff19166020820180517bffffffffffffffffffffffffffffffffffffffffffffffffffffffff8381831617835250505050611340565b505050565b600033905090565b600073ffffffffffffffffffffffffffffffffffffffff168373ffffffffffffffffffffffffffffffffffffffff161415610cb2576040517f08c379a0000000000000000000000000000000000000000000000000000000008152600401610ca990611910565b60405180910390fd5b600073ffffffffffffffffffffffffffffffffffffffff168273ffffffffffffffffffffffffffffffffffffffff161415610d22576040517f08c379a0000000000000000000000000000000000000000000000000000000008152600401610d1990611830565b60405180910390fd5b80600160008573ffffffffffffffffffffffffffffffffffffffff1673ffffffffffffffffffffffffffffffffffffffff16815260200190815260200160002060008473ffffffffffffffffffffffffffffffffffffffff1673ffffffffffffffffffffffffffffffffffffffff168152602001908152602001600020819055508173ffffffffffffffffffffffffffffffffffffffff168373ffffffffffffffffffffffffffffffffffffffff167f8c5be1e5ebec7d5bd14f71427d1e84f3dd0314c0f7b2291e5b200ac8c7c3b92583604051610e009190611970565b60405180910390a3505050565b6000610e198484610a1c565b90507fffffffffffffffffffffffffffffffffffffffffffffffffffffffffffffffff8114610e935781811015610e85576040517f08c379a0000000000000000000000000000000000000000000000000000000008152600401610e7c90611870565b60405180910390fd5b610e928484848403610c42565b5b50505050565b600073ffffffffffffffffffffffffffffffffffffffff168373ffffffffffffffffffffffffffffffffffffffff161415610f09576040517f08c379a0000000000000000000000000000000000000000000000000000000008152600401610f00906118f0565b60405180910390fd5b600073ffffffffffffffffffffffffffffffffffffffff168273ffffffffffffffffffffffffffffffffffffffff161415610f79576040517f08c379a0000000000000000000000000000000000000000000000000000000008152600401610f70906117f0565b60405180910390fd5b610f84838383611369565b60008060008573ffffffffffffffffffffffffffffffffffffffff1673ffffffffffffffffffffffffffffffffffffffff1681526020019081526020016000205490508181101561100a576040517f08c379a000000000000000000000000000000000000000000000000000000000815260040161100190611890565b60405180910390fd5b8181036000808673ffffffffffffffffffffffffffffffffffffffff1673ffffffffffffffffffffffffffffffffffffffff16815260200190815260200160002081905550816000808573ffffffffffffffffffffffffffffffffffffffff1673ffffffffffffffffffffffffffffffffffffffff168152602001908152602001600020600082825461109d91906119c2565b925050819055508273ffffffffffffffffffffffffffffffffffffffff168473ffffffffffffffffffffffffffffffffffffffff167fddf252ad1be2c89b69c2b068fc378daa952ba7f163c4a11628f55a4df523b3ef846040516111019190611970565b60405180910390a361111484848461136e565b50505050565b600073ffffffffffffffffffffffffffffffffffffffff168273ffffffffffffffffffffffffffffffffffffffff16141561118a576040517f08c379a000000000000000000000000000000000000000000000000000000000815260040161118190611950565b60405180910390fd5b61119660008383611369565b80600260008282546111a891906119c2565b92505081905550806000808473ffffffffffffffffffffffffffffffffffffffff1673ffffffffffffffffffffffffffffffffffffffff16815260200190815260200160002060008282546111fd91906119c2565b925050819055508173ffffffffffffffffffffffffffffffffffffffff16600073ffffffffffffffffffffffffffffffffffffffff167fddf252ad1be2c89b69c2b068fc378daa952ba7f163c4a11628f55a4df523b3ef836040516112629190611970565b60405180910390a36112766000838361136e565b5050565b6000600560009054906101000a900473ffffffffffffffffffffffffffffffffffffffff16905081600560006101000a81548173ffffffffffffffffffffffffffffffffffffffff021916908373ffffffffffffffffffffffffffffffffffffffff1602179055508173ffffffffffffffffffffffffffffffffffffffff168173ffffffffffffffffffffffffffffffffffffffff167f8be0079c531659141344cd1fd0a4f28419497f9722a3daafe3b4186f6b6457e060405160405180910390a35050565b60008151905060006a636f6e736f6c652e6c6f679050602083016000808483855afa5050505050565b505050565b505050565b60008135905061138281611e6d565b92915050565b60008151905061139781611e84565b92915050565b6000813590506113ac81611e9b565b92915050565b6000813590506113c181611eb2565b92915050565b6000602082840312156113d957600080fd5b60006113e784828501611373565b91505092915050565b6000806040838503121561140357600080fd5b600061141185828601611373565b925050602061142285828601611373565b9150509250929050565b60008060006060848603121561144157600080fd5b600061144f86828701611373565b935050602061146086828701611373565b9250506040611471868287016113b2565b9150509250925092565b6000806040838503121561148e57600080fd5b600061149c85828601611373565b92505060206114ad858286016113b2565b9150509250929050565b6000602082840312156114c957600080fd5b60006114d784828501611388565b91505092915050565b6000602082840312156114f257600080fd5b60006115008482850161139d565b91505092915050565b61151281611a18565b82525050565b61152181611a2a565b82525050565b61153081611a7f565b82525050565b6000611541826119a6565b61154b81856119b1565b935061155b818560208601611aa3565b61156481611b66565b840191505092915050565b600061157c6023836119b1565b915061158782611b77565b604082019050919050565b600061159f6026836119b1565b91506115aa82611bc6565b604082019050919050565b60006115c26022836119b1565b91506115cd82611c15565b604082019050919050565b60006115e5600b836119b1565b91506115f082611c64565b602082019050919050565b6000611608601d836119b1565b915061161382611c8d565b602082019050919050565b600061162b6026836119b1565b915061163682611cb6565b604082019050919050565b600061164e600f836119b1565b915061165982611d05565b602082019050919050565b60006116716020836119b1565b915061167c82611d2e565b602082019050919050565b60006116946025836119b1565b915061169f82611d57565b604082019050919050565b60006116b76024836119b1565b91506116c282611da6565b604082019050919050565b60006116da6025836119b1565b91506116e582611df5565b604082019050919050565b60006116fd601f836119b1565b915061170882611e44565b602082019050919050565b61171c81611a68565b82525050565b61172b81611a72565b82525050565b60006020820190506117466000830184611509565b92915050565b60006020820190506117616000830184611518565b92915050565b600060208201905061177c6000830184611527565b92915050565b6000602082019050818103600083015261179c8184611536565b905092915050565b600060608201905081810360008301526117be8186611536565b905081810360208301526117d28185611536565b905081810360408301526117e68184611536565b9050949350505050565b600060208201905081810360008301526118098161156f565b9050919050565b6000602082019050818103600083015261182981611592565b9050919050565b60006020820190508181036000830152611849816115b5565b9050919050565b60006020820190508181036000830152611869816115d8565b9050919050565b60006020820190508181036000830152611889816115fb565b9050919050565b600060208201905081810360008301526118a98161161e565b9050919050565b600060208201905081810360008301526118c981611641565b9050919050565b600060208201905081810360008301526118e981611664565b9050919050565b6000602082019050818103600083015261190981611687565b9050919050565b60006020820190508181036000830152611929816116aa565b9050919050565b60006020820190508181036000830152611949816116cd565b9050919050565b60006020820190508181036000830152611969816116f0565b9050919050565b60006020820190506119856000830184611713565b92915050565b60006020820190506119a06000830184611722565b92915050565b600081519050919050565b600082825260208201905092915050565b60006119cd82611a68565b91506119d883611a68565b9250827fffffffffffffffffffffffffffffffffffffffffffffffffffffffffffffffff03821115611a0d57611a0c611b08565b5b828201905092915050565b6000611a2382611a48565b9050919050565b60008115159050919050565b6000611a4182611a18565b9050919050565b600073ffffffffffffffffffffffffffffffffffffffff82169050919050565b6000819050919050565b600060ff82169050919050565b6000611a8a82611a91565b9050919050565b6000611a9c82611a48565b9050919050565b60005b83811015611ac1578082015181840152602081019050611aa6565b83811115611ad0576000848401525b50505050565b60006002820490506001821680611aee57607f821691505b60208210811415611b0257611b01611b37565b5b50919050565b7f4e487b7100000000000000000000000000000000000000000000000000000000600052601160045260246000fd5b7f4e487b7100000000000000000000000000000000000000000000000000000000600052602260045260246000fd5b6000601f19601f8301169050919050565b7f45524332303a207472616e7366657220746f20746865207a65726f206164647260008201527f6573730000000000000000000000000000000000000000000000000000000000602082015250565b7f4f776e61626c653a206e6577206f776e657220697320746865207a65726f206160008201527f6464726573730000000000000000000000000000000000000000000000000000602082015250565b7f45524332303a20617070726f766520746f20746865207a65726f20616464726560008201527f7373000000000000000000000000000000000000000000000000000000000000602082015250565b7f4e6f74206120747261696c000000000000000000000000000000000000000000600082015250565b7f45524332303a20696e73756666696369656e7420616c6c6f77616e6365000000600082015250565b7f45524332303a207472616e7366657220616d6f756e742065786365656473206260008201527f616c616e63650000000000000000000000000000000000000000000000000000602082015250565b7f466163746f7279206e6f74207365740000000000000000000000000000000000600082015250565b7f4f776e61626c653a2063616c6c6572206973206e6f7420746865206f776e6572600082015250565b7f45524332303a207472616e736665722066726f6d20746865207a65726f20616460008201527f6472657373000000000000000000000000000000000000000000000000000000602082015250565b7f45524332303a20617070726f76652066726f6d20746865207a65726f2061646460008201527f7265737300000000000000000000000000000000000000000000000000000000602082015250565b7f45524332303a2064656372656173656420616c6c6f77616e63652062656c6f7760008201527f207a65726f000000000000000000000000000000000000000000000000000000602082015250565b7f45524332303a206d696e7420746f20746865207a65726f206164647265737300600082015250565b611e7681611a18565b8114611e8157600080fd5b50565b611e8d81611a2a565b8114611e9857600080fd5b50565b611ea481611a36565b8114611eaf57600080fd5b50565b611ebb81611a68565b8114611ec657600080fd5b5056fea2646970667358221220f344a04f191a767137d4c9052e36a05ff223739f897c5ff0d8d5e83ef88dc1e264736f6c63430008040033",
  "linkReferences": {},
  "deployedLinkReferences": {}
}