{
  "_format": "hh-sol-artifact-1",
  "contractName": "TrailDAONFT",
  "sourceName": "contracts/TrailDAONFT.sol",
  "abi": [
    {
      "inputs": [
        {
          "internalType": "string",
          "name": "name",
          "type": "string"
        },
        {
          "internalType": "string",
          "name": "symbol",
          "type": "string"
        }
      ],
      "stateMutability": "nonpayable",
      "type": "constructor"
    },
    {
      "anonymous": false,
      "inputs": [
        {
          "indexed": true,
          "internalType": "address",
          "name": "owner",
          "type": "address"
        },
        {
          "indexed": true,
          "internalType": "address",
          "name": "approved",
          "type": "address"
        },
        {
          "indexed": true,
          "internalType": "uint256",
          "name": "tokenId",
          "type": "uint256"
        }
      ],
      "name": "Approval",
      "type": "event"
    },
    {
      "anonymous": false,
      "inputs": [
        {
          "indexed": true,
          "internalType": "address",
          "name": "owner",
          "type": "address"
        },
        {
          "indexed": true,
          "internalType": "address",
          "name": "operator",
          "type": "address"
        },
        {
          "indexed": false,
          "internalType": "bool",
          "name": "approved",
          "type": "bool"
        }
      ],
      "name": "ApprovalForAll",
      "type": "event"
    },
    {
      "anonymous": false,
      "inputs": [
        {
          "indexed": true,
          "internalType": "address",
          "name": "previousOwner",
          "type": "address"
        },
        {
          "indexed": true,
          "internalType": "address",
          "name": "newOwner",
          "type": "address"
        }
      ],
      "name": "OwnershipTransferred",
      "type": "event"
    },
    {
      "anonymous": false,
      "inputs": [
        {
          "indexed": true,
          "internalType": "address",
          "name": "from",
          "type": "address"
        },
        {
          "indexed": true,
          "internalType": "address",
          "name": "to",
          "type": "address"
        },
        {
          "indexed": true,
          "internalType": "uint256",
          "name": "tokenId",
          "type": "uint256"
        }
      ],
      "name": "Transfer",
      "type": "event"
    },
    {
      "inputs": [
        {
          "internalType": "address",
          "name": "to",
          "type": "address"
        },
        {
          "internalType": "uint256",
          "name": "tokenId",
          "type": "uint256"
        }
      ],
      "name": "approve",
      "outputs": [],
      "stateMutability": "nonpayable",
      "type": "function"
    },
    {
      "inputs": [
        {
          "internalType": "address",
          "name": "owner",
          "type": "address"
        }
      ],
      "name": "balanceOf",
      "outputs": [
        {
          "internalType": "uint256",
          "name": "",
          "type": "uint256"
        }
      ],
      "stateMutability": "view",
      "type": "function"
    },
    {
      "inputs": [
        {
          "internalType": "uint256",
          "name": "tokenId",
          "type": "uint256"
        }
      ],
      "name": "getApproved",
      "outputs": [
        {
          "internalType": "address",
          "name": "",
          "type": "address"
        }
      ],
      "stateMutability": "view",
      "type": "function"
    },
    {
      "inputs": [
        {
          "internalType": "address",
          "name": "owner",
          "type": "address"
        },
        {
          "internalType": "address",
          "name": "operator",
          "type": "address"
        }
      ],
      "name": "isApprovedForAll",
      "outputs": [
        {
          "internalType": "bool",
          "name": "",
          "type": "bool"
        }
      ],
      "stateMutability": "view",
      "type": "function"
    },
    {
      "inputs": [],
      "name": "mint",
      "outputs": [],
      "stateMutability": "payable",
      "type": "function"
    },
    {
      "inputs": [],
      "name": "mintPrice",
      "outputs": [
        {
          "internalType": "uint256",
          "name": "",
          "type": "uint256"
        }
      ],
      "stateMutability": "view",
      "type": "function"
    },
    {
      "inputs": [],
      "name": "name",
      "outputs": [
        {
          "internalType": "string",
          "name": "",
          "type": "string"
        }
      ],
      "stateMutability": "view",
      "type": "function"
    },
    {
      "inputs": [],
      "name": "owner",
      "outputs": [
        {
          "internalType": "address",
          "name": "",
          "type": "address"
        }
      ],
      "stateMutability": "view",
      "type": "function"
    },
    {
      "inputs": [
        {
          "internalType": "uint256",
          "name": "tokenId",
          "type": "uint256"
        }
      ],
      "name": "ownerOf",
      "outputs": [
        {
          "internalType": "address",
          "name": "",
          "type": "address"
        }
      ],
      "stateMutability": "view",
      "type": "function"
    },
    {
      "inputs": [],
      "name": "renounceOwnership",
      "outputs": [],
      "stateMutability": "nonpayable",
      "type": "function"
    },
    {
      "inputs": [
        {
          "internalType": "address",
          "name": "from",
          "type": "address"
        },
        {
          "internalType": "address",
          "name": "to",
          "type": "address"
        },
        {
          "internalType": "uint256",
          "name": "tokenId",
          "type": "uint256"
        }
      ],
      "name": "safeTransferFrom",
      "outputs": [],
      "stateMutability": "nonpayable",
      "type": "function"
    },
    {
      "inputs": [
        {
          "internalType": "address",
          "name": "from",
          "type": "address"
        },
        {
          "internalType": "address",
          "name": "to",
          "type": "address"
        },
        {
          "internalType": "uint256",
          "name": "tokenId",
          "type": "uint256"
        },
        {
          "internalType": "bytes",
          "name": "_data",
          "type": "bytes"
        }
      ],
      "name": "safeTransferFrom",
      "outputs": [],
      "stateMutability": "nonpayable",
      "type": "function"
    },
    {
      "inputs": [
        {
          "internalType": "address",
          "name": "operator",
          "type": "address"
        },
        {
          "internalType": "bool",
          "name": "approved",
          "type": "bool"
        }
      ],
      "name": "setApprovalForAll",
      "outputs": [],
      "stateMutability": "nonpayable",
      "type": "function"
    },
    {
      "inputs": [
        {
          "internalType": "bytes4",
          "name": "interfaceId",
          "type": "bytes4"
        }
      ],
      "name": "supportsInterface",
      "outputs": [
        {
          "internalType": "bool",
          "name": "",
          "type": "bool"
        }
      ],
      "stateMutability": "view",
      "type": "function"
    },
    {
      "inputs": [],
      "name": "symbol",
      "outputs": [
        {
          "internalType": "string",
          "name": "",
          "type": "string"
        }
      ],
      "stateMutability": "view",
      "type": "function"
    },
    {
      "inputs": [
        {
          "internalType": "uint256",
          "name": "index",
          "type": "uint256"
        }
      ],
      "name": "tokenByIndex",
      "outputs": [
        {
          "internalType": "uint256",
          "name": "",
          "type": "uint256"
        }
      ],
      "stateMutability": "view",
      "type": "function"
    },
    {
      "inputs": [
        {
          "internalType": "address",
          "name": "owner",
          "type": "address"
        },
        {
          "internalType": "uint256",
          "name": "index",
          "type": "uint256"
        }
      ],
      "name": "tokenOfOwnerByIndex",
      "outputs": [
        {
          "internalType": "uint256",
          "name": "",
          "type": "uint256"
        }
      ],
      "stateMutability": "view",
      "type": "function"
    },
    {
      "inputs": [
        {
          "internalType": "uint256",
          "name": "tokenId",
          "type": "uint256"
        }
      ],
      "name": "tokenURI",
      "outputs": [
        {
          "internalType": "string",
          "name": "",
          "type": "string"
        }
      ],
      "stateMutability": "view",
      "type": "function"
    },
    {
      "inputs": [],
      "name": "totalSupply",
      "outputs": [
        {
          "internalType": "uint256",
          "name": "",
          "type": "uint256"
        }
      ],
      "stateMutability": "view",
      "type": "function"
    },
    {
      "inputs": [
        {
          "internalType": "address",
          "name": "from",
          "type": "address"
        },
        {
          "internalType": "address",
          "name": "to",
          "type": "address"
        },
        {
          "internalType": "uint256",
          "name": "tokenId",
          "type": "uint256"
        }
      ],
      "name": "transferFrom",
      "outputs": [],
      "stateMutability": "nonpayable",
      "type": "function"
    },
    {
      "inputs": [
        {
          "internalType": "address",
          "name": "newOwner",
          "type": "address"
        }
      ],
      "name": "transferOwnership",
      "outputs": [],
      "stateMutability": "nonpayable",
      "type": "function"
    },
    {
      "inputs": [
        {
          "internalType": "address payable",
          "name": "recipient",
          "type": "address"
        }
      ],
      "name": "withdraw",
      "outputs": [],
      "stateMutability": "nonpayable",
      "type": "function"
    }
  ],
  "bytecode": "0x608060405266b1a2bc2ec50000600c553480156200001c57600080fd5b506040516200408d3803806200408d8339818101604052810190620000429190620003af565b818181600090805190602001906200005c9291906200028d565b508060019080519060200190620000759291906200028d565b505050620000986200008c620000ed60201b60201c565b620000f560201b60201c565b620000e56040518060400160405280602081526020017f547261696c44414f4e4654206465706c6f79656420776974682025732c2025738152508383620001bb60201b620010411760201c565b505062000641565b600033905090565b6000600a60009054906101000a900473ffffffffffffffffffffffffffffffffffffffff16905081600a60006101000a81548173ffffffffffffffffffffffffffffffffffffffff021916908373ffffffffffffffffffffffffffffffffffffffff1602179055508173ffffffffffffffffffffffffffffffffffffffff168173ffffffffffffffffffffffffffffffffffffffff167f8be0079c531659141344cd1fd0a4f28419497f9722a3daafe3b4186f6b6457e060405160405180910390a35050565b6200025f838383604051602401620001d69392919062000463565b6040516020818303038152906040527f2ced7cef000000000000000000000000000000000000000000000000000000007bffffffffffffffffffffffffffffffffffffffffffffffffffffffff19166020820180517bffffffffffffffffffffffffffffffffffffffffffffffffffffffff83818316178352505050506200026460201b60201c565b505050565b60008151905060006a636f6e736f6c652e6c6f679050602083016000808483855afa5050505050565b8280546200029b9062000566565b90600052602060002090601f016020900481019282620002bf57600085556200030b565b82601f10620002da57805160ff19168380011785556200030b565b828001600101855582156200030b579182015b828111156200030a578251825591602001919060010190620002ed565b5b5090506200031a91906200031e565b5090565b5b80821115620003395760008160009055506001016200031f565b5090565b6000620003546200034e84620004de565b620004b5565b9050828152602081018484840111156200036d57600080fd5b6200037a84828562000530565b509392505050565b600082601f8301126200039457600080fd5b8151620003a68482602086016200033d565b91505092915050565b60008060408385031215620003c357600080fd5b600083015167ffffffffffffffff811115620003de57600080fd5b620003ec8582860162000382565b925050602083015167ffffffffffffffff8111156200040a57600080fd5b620004188582860162000382565b9150509250929050565b60006200042f8262000514565b6200043b81856200051f565b93506200044d81856020860162000530565b620004588162000630565b840191505092915050565b600060608201905081810360008301526200047f818662000422565b9050818103602083015262000495818562000422565b90508181036040830152620004ab818462000422565b9050949350505050565b6000620004c1620004d4565b9050620004cf82826200059c565b919050565b6000604051905090565b600067ffffffffffffffff821115620004fc57620004fb62000601565b5b620005078262000630565b9050602081019050919050565b600081519050919050565b600082825260208201905092915050565b60005b838110156200055057808201518184015260208101905062000533565b8381111562000560576000848401525b50505050565b600060028204905060018216806200057f57607f821691505b60208210811415620005965762000595620005d2565b5b50919050565b620005a78262000630565b810181811067ffffffffffffffff82111715620005c957620005c862000601565b5b80604052505050565b7f4e487b7100000000000000000000000000000000000000000000000000000000600052602260045260246000fd5b7f4e487b7100000000000000000000000000000000000000000000000000000000600052604160045260246000fd5b6000601f19601f8301169050919050565b613a3c80620006516000396000f3fe6080604052600436106101355760003560e01c80636352211e116100ab57806395d89b411161006f57806395d89b4114610419578063a22cb46514610444578063b88d4fde1461046d578063c87b56dd14610496578063e985e9c5146104d3578063f2fde38b1461051057610135565b80636352211e146103325780636817c76c1461036f57806370a082311461039a578063715018a6146103d75780638da5cb5b146103ee57610135565b806318160ddd116100fd57806318160ddd1461021257806323b872dd1461023d5780632f745c591461026657806342842e0e146102a35780634f6ccce7146102cc57806351cff8d91461030957610135565b806301ffc9a71461013a57806306fdde0314610177578063081812fc146101a2578063095ea7b3146101df5780631249c58b14610208575b600080fd5b34801561014657600080fd5b50610161600480360381019061015c919061278b565b610539565b60405161016e9190612c9b565b60405180910390f35b34801561018357600080fd5b5061018c6105b3565b6040516101999190612cb6565b60405180910390f35b3480156101ae57600080fd5b506101c960048036038101906101c491906127dd565b610645565b6040516101d69190612c34565b60405180910390f35b3480156101eb57600080fd5b506102066004803603810190610201919061274f565b6106ca565b005b6102106107e2565b005b34801561021e57600080fd5b50610227610890565b6040516102349190612fe4565b60405180910390f35b34801561024957600080fd5b50610264600480360381019061025f9190612649565b61089d565b005b34801561027257600080fd5b5061028d6004803603810190610288919061274f565b6108fd565b60405161029a9190612fe4565b60405180910390f35b3480156102af57600080fd5b506102ca60048036038101906102c59190612649565b6109a2565b005b3480156102d857600080fd5b506102f360048036038101906102ee91906127dd565b6109c2565b6040516103009190612fe4565b60405180910390f35b34801561031557600080fd5b50610330600480360381019061032b91906125e4565b610a59565b005b34801561033e57600080fd5b50610359600480360381019061035491906127dd565b610ae2565b6040516103669190612c34565b60405180910390f35b34801561037b57600080fd5b50610384610b94565b6040516103919190612fe4565b60405180910390f35b3480156103a657600080fd5b506103c160048036038101906103bc91906125bb565b610b9a565b6040516103ce9190612fe4565b60405180910390f35b3480156103e357600080fd5b506103ec610c52565b005b3480156103fa57600080fd5b50610403610cda565b6040516104109190612c34565b60405180910390f35b34801561042557600080fd5b5061042e610d04565b60405161043b9190612cb6565b60405180910390f35b34801561045057600080fd5b5061046b60048036038101906104669190612713565b610d96565b005b34801561047957600080fd5b50610494600480360381019061048f9190612698565b610dac565b005b3480156104a257600080fd5b506104bd60048036038101906104b891906127dd565b610e0e565b6040516104ca9190612cb6565b60405180910390f35b3480156104df57600080fd5b506104fa60048036038101906104f5919061260d565b610eb5565b6040516105079190612c9b565b60405180910390f35b34801561051c57600080fd5b50610537600480360381019061053291906125bb565b610f49565b005b60007f780e9d63000000000000000000000000000000000000000000000000000000007bffffffffffffffffffffffffffffffffffffffffffffffffffffffff1916827bffffffffffffffffffffffffffffffffffffffffffffffffffffffff191614806105ac57506105ab826110e0565b5b9050919050565b6060600080546105c290613226565b80601f01602080910402602001604051908101604052809291908181526020018280546105ee90613226565b801561063b5780601f106106105761010080835404028352916020019161063b565b820191906000526020600020905b81548152906001019060200180831161061e57829003601f168201915b5050505050905090565b6000610650826111c2565b61068f576040517f08c379a000000000000000000000000000000000000000000000000000000000815260040161068690612f24565b60405180910390fd5b6004600083815260200190815260200160002060009054906101000a900473ffffffffffffffffffffffffffffffffffffffff169050919050565b60006106d582610ae2565b90508073ffffffffffffffffffffffffffffffffffffffff168373ffffffffffffffffffffffffffffffffffffffff161415610746576040517f08c379a000000000000000000000000000000000000000000000000000000000815260040161073d90612f84565b60405180910390fd5b8073ffffffffffffffffffffffffffffffffffffffff1661076561122e565b73ffffffffffffffffffffffffffffffffffffffff16148061079457506107938161078e61122e565b610eb5565b5b6107d3576040517f08c379a00000000000000000000000000000000000000000000000000000000081526004016107ca90612ea4565b60405180910390fd5b6107dd8383611236565b505050565b60006107ed33610b9a565b1461082d576040517f08c379a000000000000000000000000000000000000000000000000000000000815260040161082490612e64565b60405180910390fd5b600c543414610871576040517f08c379a000000000000000000000000000000000000000000000000000000000815260040161086890612e84565b60405180910390fd5b61087b600b6112ef565b61088e33610889600b611305565b611313565b565b6000600880549050905090565b6108ae6108a861122e565b82611331565b6108ed576040517f08c379a00000000000000000000000000000000000000000000000000000000081526004016108e490612fa4565b60405180910390fd5b6108f883838361140f565b505050565b600061090883610b9a565b8210610949576040517f08c379a000000000000000000000000000000000000000000000000000000000815260040161094090612d24565b60405180910390fd5b600660008473ffffffffffffffffffffffffffffffffffffffff1673ffffffffffffffffffffffffffffffffffffffff168152602001908152602001600020600083815260200190815260200160002054905092915050565b6109bd83838360405180602001604052806000815250610dac565b505050565b60006109cc610890565b8210610a0d576040517f08c379a0000000000000000000000000000000000000000000000000000000008152600401610a0490612fc4565b60405180910390fd5b60088281548110610a47577f4e487b7100000000000000000000000000000000000000000000000000000000600052603260045260246000fd5b90600052602060002001549050919050565b610a6161122e565b73ffffffffffffffffffffffffffffffffffffffff16610a7f610cda565b73ffffffffffffffffffffffffffffffffffffffff1614610ad5576040517f08c379a0000000000000000000000000000000000000000000000000000000008152600401610acc90612f44565b60405180910390fd5b610adf8147611676565b50565b6000806002600084815260200190815260200160002060009054906101000a900473ffffffffffffffffffffffffffffffffffffffff169050600073ffffffffffffffffffffffffffffffffffffffff168173ffffffffffffffffffffffffffffffffffffffff161415610b8b576040517f08c379a0000000000000000000000000000000000000000000000000000000008152600401610b8290612ee4565b60405180910390fd5b80915050919050565b600c5481565b60008073ffffffffffffffffffffffffffffffffffffffff168273ffffffffffffffffffffffffffffffffffffffff161415610c0b576040517f08c379a0000000000000000000000000000000000000000000000000000000008152600401610c0290612ec4565b60405180910390fd5b600360008373ffffffffffffffffffffffffffffffffffffffff1673ffffffffffffffffffffffffffffffffffffffff168152602001908152602001600020549050919050565b610c5a61122e565b73ffffffffffffffffffffffffffffffffffffffff16610c78610cda565b73ffffffffffffffffffffffffffffffffffffffff1614610cce576040517f08c379a0000000000000000000000000000000000000000000000000000000008152600401610cc590612f44565b60405180910390fd5b610cd8600061176a565b565b6000600a60009054906101000a900473ffffffffffffffffffffffffffffffffffffffff16905090565b606060018054610d1390613226565b80601f0160208091040260200160405190810160405280929190818152602001828054610d3f90613226565b8015610d8c5780601f10610d6157610100808354040283529160200191610d8c565b820191906000526020600020905b815481529060010190602001808311610d6f57829003601f168201915b5050505050905090565b610da8610da161122e565b8383611830565b5050565b610dbd610db761122e565b83611331565b610dfc576040517f08c379a0000000000000000000000000000000000000000000000000000000008152600401610df390612fa4565b60405180910390fd5b610e088484848461199d565b50505050565b6060610e19826111c2565b610e58576040517f08c379a0000000000000000000000000000000000000000000000000000000008152600401610e4f90612f64565b60405180910390fd5b6000610e626119f9565b90506000815111610e825760405180602001604052806000815250610ead565b80610e8c84611a10565b604051602001610e9d929190612bfb565b6040516020818303038152906040525b915050919050565b6000600560008473ffffffffffffffffffffffffffffffffffffffff1673ffffffffffffffffffffffffffffffffffffffff16815260200190815260200160002060008373ffffffffffffffffffffffffffffffffffffffff1673ffffffffffffffffffffffffffffffffffffffff16815260200190815260200160002060009054906101000a900460ff16905092915050565b610f5161122e565b73ffffffffffffffffffffffffffffffffffffffff16610f6f610cda565b73ffffffffffffffffffffffffffffffffffffffff1614610fc5576040517f08c379a0000000000000000000000000000000000000000000000000000000008152600401610fbc90612f44565b60405180910390fd5b600073ffffffffffffffffffffffffffffffffffffffff168173ffffffffffffffffffffffffffffffffffffffff161415611035576040517f08c379a000000000000000000000000000000000000000000000000000000000815260040161102c90612d64565b60405180910390fd5b61103e8161176a565b50565b6110db83838360405160240161105993929190612cd8565b6040516020818303038152906040527f2ced7cef000000000000000000000000000000000000000000000000000000007bffffffffffffffffffffffffffffffffffffffffffffffffffffffff19166020820180517bffffffffffffffffffffffffffffffffffffffffffffffffffffffff8381831617835250505050611bbd565b505050565b60007f80ac58cd000000000000000000000000000000000000000000000000000000007bffffffffffffffffffffffffffffffffffffffffffffffffffffffff1916827bffffffffffffffffffffffffffffffffffffffffffffffffffffffff191614806111ab57507f5b5e139f000000000000000000000000000000000000000000000000000000007bffffffffffffffffffffffffffffffffffffffffffffffffffffffff1916827bffffffffffffffffffffffffffffffffffffffffffffffffffffffff1916145b806111bb57506111ba82611be6565b5b9050919050565b60008073ffffffffffffffffffffffffffffffffffffffff166002600084815260200190815260200160002060009054906101000a900473ffffffffffffffffffffffffffffffffffffffff1673ffffffffffffffffffffffffffffffffffffffff1614159050919050565b600033905090565b816004600083815260200190815260200160002060006101000a81548173ffffffffffffffffffffffffffffffffffffffff021916908373ffffffffffffffffffffffffffffffffffffffff160217905550808273ffffffffffffffffffffffffffffffffffffffff166112a983610ae2565b73ffffffffffffffffffffffffffffffffffffffff167f8c5be1e5ebec7d5bd14f71427d1e84f3dd0314c0f7b2291e5b200ac8c7c3b92560405160405180910390a45050565b6001816000016000828254019250508190555050565b600081600001549050919050565b61132d828260405180602001604052806000815250611c50565b5050565b600061133c826111c2565b61137b576040517f08c379a000000000000000000000000000000000000000000000000000000000815260040161137290612e44565b60405180910390fd5b600061138683610ae2565b90508073ffffffffffffffffffffffffffffffffffffffff168473ffffffffffffffffffffffffffffffffffffffff1614806113f557508373ffffffffffffffffffffffffffffffffffffffff166113dd84610645565b73ffffffffffffffffffffffffffffffffffffffff16145b8061140657506114058185610eb5565b5b91505092915050565b8273ffffffffffffffffffffffffffffffffffffffff1661142f82610ae2565b73ffffffffffffffffffffffffffffffffffffffff1614611485576040517f08c379a000000000000000000000000000000000000000000000000000000000815260040161147c90612d84565b60405180910390fd5b600073ffffffffffffffffffffffffffffffffffffffff168273ffffffffffffffffffffffffffffffffffffffff1614156114f5576040517f08c379a00000000000000000000000000000000000000000000000000000000081526004016114ec90612dc4565b60405180910390fd5b611500838383611cab565b61150b600082611236565b6001600360008573ffffffffffffffffffffffffffffffffffffffff1673ffffffffffffffffffffffffffffffffffffffff168152602001908152602001600020600082825461155b919061312a565b925050819055506001600360008473ffffffffffffffffffffffffffffffffffffffff1673ffffffffffffffffffffffffffffffffffffffff16815260200190815260200160002060008282546115b291906130a3565b92505081905550816002600083815260200190815260200160002060006101000a81548173ffffffffffffffffffffffffffffffffffffffff021916908373ffffffffffffffffffffffffffffffffffffffff160217905550808273ffffffffffffffffffffffffffffffffffffffff168473ffffffffffffffffffffffffffffffffffffffff167fddf252ad1be2c89b69c2b068fc378daa952ba7f163c4a11628f55a4df523b3ef60405160405180910390a4611671838383611dbf565b505050565b804710156116b9576040517f08c379a00000000000000000000000000000000000000000000000000000000081526004016116b090612e24565b60405180910390fd5b60008273ffffffffffffffffffffffffffffffffffffffff16826040516116df90612c1f565b60006040518083038185875af1925050503d806000811461171c576040519150601f19603f3d011682016040523d82523d6000602084013e611721565b606091505b5050905080611765576040517f08c379a000000000000000000000000000000000000000000000000000000000815260040161175c90612e04565b60405180910390fd5b505050565b6000600a60009054906101000a900473ffffffffffffffffffffffffffffffffffffffff16905081600a60006101000a81548173ffffffffffffffffffffffffffffffffffffffff021916908373ffffffffffffffffffffffffffffffffffffffff1602179055508173ffffffffffffffffffffffffffffffffffffffff168173ffffffffffffffffffffffffffffffffffffffff167f8be0079c531659141344cd1fd0a4f28419497f9722a3daafe3b4186f6b6457e060405160405180910390a35050565b8173ffffffffffffffffffffffffffffffffffffffff168373ffffffffffffffffffffffffffffffffffffffff16141561189f576040517f08c379a000000000000000000000000000000000000000000000000000000000815260040161189690612de4565b60405180910390fd5b80600560008573ffffffffffffffffffffffffffffffffffffffff1673ffffffffffffffffffffffffffffffffffffffff16815260200190815260200160002060008473ffffffffffffffffffffffffffffffffffffffff1673ffffffffffffffffffffffffffffffffffffffff16815260200190815260200160002060006101000a81548160ff0219169083151502179055508173ffffffffffffffffffffffffffffffffffffffff168373ffffffffffffffffffffffffffffffffffffffff167f17307eab39ab6107e8899845ad3d59bd9653f200f220920489ca2b5937696c31836040516119909190612c9b565b60405180910390a3505050565b6119a884848461140f565b6119b484848484611dc4565b6119f3576040517f08c379a00000000000000000000000000000000000000000000000000000000081526004016119ea90612d44565b60405180910390fd5b50505050565b606060405180602001604052806000815250905090565b60606000821415611a58576040518060400160405280600181526020017f30000000000000000000000000000000000000000000000000000000000000008152509050611bb8565b600082905060005b60008214611a8a578080611a7390613289565b915050600a82611a8391906130f9565b9150611a60565b60008167ffffffffffffffff811115611acc577f4e487b7100000000000000000000000000000000000000000000000000000000600052604160045260246000fd5b6040519080825280601f01601f191660200182016040528015611afe5781602001600182028036833780820191505090505b5090505b60008514611bb157600182611b17919061312a565b9150600a85611b2691906132d2565b6030611b3291906130a3565b60f81b818381518110611b6e577f4e487b7100000000000000000000000000000000000000000000000000000000600052603260045260246000fd5b60200101907effffffffffffffffffffffffffffffffffffffffffffffffffffffffffffff1916908160001a905350600a85611baa91906130f9565b9450611b02565b8093505050505b919050565b60008151905060006a636f6e736f6c652e6c6f679050602083016000808483855afa5050505050565b60007f01ffc9a7000000000000000000000000000000000000000000000000000000007bffffffffffffffffffffffffffffffffffffffffffffffffffffffff1916827bffffffffffffffffffffffffffffffffffffffffffffffffffffffff1916149050919050565b611c5a8383611f5b565b611c676000848484611dc4565b611ca6576040517f08c379a0000000000000000000000000000000000000000000000000000000008152600401611c9d90612d44565b60405180910390fd5b505050565b611cb6838383612135565b600073ffffffffffffffffffffffffffffffffffffffff168373ffffffffffffffffffffffffffffffffffffffff161415611cf957611cf48161213a565b611d38565b8173ffffffffffffffffffffffffffffffffffffffff168373ffffffffffffffffffffffffffffffffffffffff1614611d3757611d368382612183565b5b5b600073ffffffffffffffffffffffffffffffffffffffff168273ffffffffffffffffffffffffffffffffffffffff161415611d7b57611d76816122f0565b611dba565b8273ffffffffffffffffffffffffffffffffffffffff168273ffffffffffffffffffffffffffffffffffffffff1614611db957611db88282612433565b5b5b505050565b505050565b6000611de58473ffffffffffffffffffffffffffffffffffffffff166124b2565b15611f4e578373ffffffffffffffffffffffffffffffffffffffff1663150b7a02611e0e61122e565b8786866040518563ffffffff1660e01b8152600401611e309493929190612c4f565b602060405180830381600087803b158015611e4a57600080fd5b505af1925050508015611e7b57506040513d601f19601f82011682018060405250810190611e7891906127b4565b60015b611efe573d8060008114611eab576040519150601f19603f3d011682016040523d82523d6000602084013e611eb0565b606091505b50600081511415611ef6576040517f08c379a0000000000000000000000000000000000000000000000000000000008152600401611eed90612d44565b60405180910390fd5b805181602001fd5b63150b7a0260e01b7bffffffffffffffffffffffffffffffffffffffffffffffffffffffff1916817bffffffffffffffffffffffffffffffffffffffffffffffffffffffff191614915050611f53565b600190505b949350505050565b600073ffffffffffffffffffffffffffffffffffffffff168273ffffffffffffffffffffffffffffffffffffffff161415611fcb576040517f08c379a0000000000000000000000000000000000000000000000000000000008152600401611fc290612f04565b60405180910390fd5b611fd4816111c2565b15612014576040517f08c379a000000000000000000000000000000000000000000000000000000000815260040161200b90612da4565b60405180910390fd5b61202060008383611cab565b6001600360008473ffffffffffffffffffffffffffffffffffffffff1673ffffffffffffffffffffffffffffffffffffffff168152602001908152602001600020600082825461207091906130a3565b92505081905550816002600083815260200190815260200160002060006101000a81548173ffffffffffffffffffffffffffffffffffffffff021916908373ffffffffffffffffffffffffffffffffffffffff160217905550808273ffffffffffffffffffffffffffffffffffffffff16600073ffffffffffffffffffffffffffffffffffffffff167fddf252ad1be2c89b69c2b068fc378daa952ba7f163c4a11628f55a4df523b3ef60405160405180910390a461213160008383611dbf565b5050565b505050565b6008805490506009600083815260200190815260200160002081905550600881908060018154018082558091505060019003906000526020600020016000909190919091505550565b6000600161219084610b9a565b61219a919061312a565b905060006007600084815260200190815260200160002054905081811461227f576000600660008673ffffffffffffffffffffffffffffffffffffffff1673ffffffffffffffffffffffffffffffffffffffff168152602001908152602001600020600084815260200190815260200160002054905080600660008773ffffffffffffffffffffffffffffffffffffffff1673ffffffffffffffffffffffffffffffffffffffff168152602001908152602001600020600084815260200190815260200160002081905550816007600083815260200190815260200160002081905550505b6007600084815260200190815260200160002060009055600660008573ffffffffffffffffffffffffffffffffffffffff1673ffffffffffffffffffffffffffffffffffffffff16815260200190815260200160002060008381526020019081526020016000206000905550505050565b60006001600880549050612304919061312a565b905060006009600084815260200190815260200160002054905060006008838154811061235a577f4e487b7100000000000000000000000000000000000000000000000000000000600052603260045260246000fd5b9060005260206000200154905080600883815481106123a2577f4e487b7100000000000000000000000000000000000000000000000000000000600052603260045260246000fd5b906000526020600020018190555081600960008381526020019081526020016000208190555060096000858152602001908152602001600020600090556008805480612417577f4e487b7100000000000000000000000000000000000000000000000000000000600052603160045260246000fd5b6001900381819060005260206000200160009055905550505050565b600061243e83610b9a565b905081600660008573ffffffffffffffffffffffffffffffffffffffff1673ffffffffffffffffffffffffffffffffffffffff168152602001908152602001600020600083815260200190815260200160002081905550806007600084815260200190815260200160002081905550505050565b6000808273ffffffffffffffffffffffffffffffffffffffff163b119050919050565b60006124e86124e384613024565b612fff565b90508281526020810184848401111561250057600080fd5b61250b8482856131e4565b509392505050565b60008135905061252281613993565b92915050565b600081359050612537816139aa565b92915050565b60008135905061254c816139c1565b92915050565b600081359050612561816139d8565b92915050565b600081519050612576816139d8565b92915050565b600082601f83011261258d57600080fd5b813561259d8482602086016124d5565b91505092915050565b6000813590506125b5816139ef565b92915050565b6000602082840312156125cd57600080fd5b60006125db84828501612513565b91505092915050565b6000602082840312156125f657600080fd5b600061260484828501612528565b91505092915050565b6000806040838503121561262057600080fd5b600061262e85828601612513565b925050602061263f85828601612513565b9150509250929050565b60008060006060848603121561265e57600080fd5b600061266c86828701612513565b935050602061267d86828701612513565b925050604061268e868287016125a6565b9150509250925092565b600080600080608085870312156126ae57600080fd5b60006126bc87828801612513565b94505060206126cd87828801612513565b93505060406126de878288016125a6565b925050606085013567ffffffffffffffff8111156126fb57600080fd5b6127078782880161257c565b91505092959194509250565b6000806040838503121561272657600080fd5b600061273485828601612513565b92505060206127458582860161253d565b9150509250929050565b6000806040838503121561276257600080fd5b600061277085828601612513565b9250506020612781858286016125a6565b9150509250929050565b60006020828403121561279d57600080fd5b60006127ab84828501612552565b91505092915050565b6000602082840312156127c657600080fd5b60006127d484828501612567565b91505092915050565b6000602082840312156127ef57600080fd5b60006127fd848285016125a6565b91505092915050565b61280f8161315e565b82525050565b61281e81613182565b82525050565b600061282f82613055565b612839818561306b565b93506128498185602086016131f3565b612852816133bf565b840191505092915050565b600061286882613060565b6128728185613087565b93506128828185602086016131f3565b61288b816133bf565b840191505092915050565b60006128a182613060565b6128ab8185613098565b93506128bb8185602086016131f3565b80840191505092915050565b60006128d4602b83613087565b91506128df826133d0565b604082019050919050565b60006128f7603283613087565b91506129028261341f565b604082019050919050565b600061291a602683613087565b91506129258261346e565b604082019050919050565b600061293d602583613087565b9150612948826134bd565b604082019050919050565b6000612960601c83613087565b915061296b8261350c565b602082019050919050565b6000612983602483613087565b915061298e82613535565b604082019050919050565b60006129a6601983613087565b91506129b182613584565b602082019050919050565b60006129c9603a83613087565b91506129d4826135ad565b604082019050919050565b60006129ec601d83613087565b91506129f7826135fc565b602082019050919050565b6000612a0f602c83613087565b9150612a1a82613625565b604082019050919050565b6000612a32601c83613087565b9150612a3d82613674565b602082019050919050565b6000612a55601283613087565b9150612a608261369d565b602082019050919050565b6000612a78603883613087565b9150612a83826136c6565b604082019050919050565b6000612a9b602a83613087565b9150612aa682613715565b604082019050919050565b6000612abe602983613087565b9150612ac982613764565b604082019050919050565b6000612ae1602083613087565b9150612aec826137b3565b602082019050919050565b6000612b04602c83613087565b9150612b0f826137dc565b604082019050919050565b6000612b27602083613087565b9150612b328261382b565b602082019050919050565b6000612b4a602f83613087565b9150612b5582613854565b604082019050919050565b6000612b6d602183613087565b9150612b78826138a3565b604082019050919050565b6000612b9060008361307c565b9150612b9b826138f2565b600082019050919050565b6000612bb3603183613087565b9150612bbe826138f5565b604082019050919050565b6000612bd6602c83613087565b9150612be182613944565b604082019050919050565b612bf5816131da565b82525050565b6000612c078285612896565b9150612c138284612896565b91508190509392505050565b6000612c2a82612b83565b9150819050919050565b6000602082019050612c496000830184612806565b92915050565b6000608082019050612c646000830187612806565b612c716020830186612806565b612c7e6040830185612bec565b8181036060830152612c908184612824565b905095945050505050565b6000602082019050612cb06000830184612815565b92915050565b60006020820190508181036000830152612cd0818461285d565b905092915050565b60006060820190508181036000830152612cf2818661285d565b90508181036020830152612d06818561285d565b90508181036040830152612d1a818461285d565b9050949350505050565b60006020820190508181036000830152612d3d816128c7565b9050919050565b60006020820190508181036000830152612d5d816128ea565b9050919050565b60006020820190508181036000830152612d7d8161290d565b9050919050565b60006020820190508181036000830152612d9d81612930565b9050919050565b60006020820190508181036000830152612dbd81612953565b9050919050565b60006020820190508181036000830152612ddd81612976565b9050919050565b60006020820190508181036000830152612dfd81612999565b9050919050565b60006020820190508181036000830152612e1d816129bc565b9050919050565b60006020820190508181036000830152612e3d816129df565b9050919050565b60006020820190508181036000830152612e5d81612a02565b9050919050565b60006020820190508181036000830152612e7d81612a25565b9050919050565b60006020820190508181036000830152612e9d81612a48565b9050919050565b60006020820190508181036000830152612ebd81612a6b565b9050919050565b60006020820190508181036000830152612edd81612a8e565b9050919050565b60006020820190508181036000830152612efd81612ab1565b9050919050565b60006020820190508181036000830152612f1d81612ad4565b9050919050565b60006020820190508181036000830152612f3d81612af7565b9050919050565b60006020820190508181036000830152612f5d81612b1a565b9050919050565b60006020820190508181036000830152612f7d81612b3d565b9050919050565b60006020820190508181036000830152612f9d81612b60565b9050919050565b60006020820190508181036000830152612fbd81612ba6565b9050919050565b60006020820190508181036000830152612fdd81612bc9565b9050919050565b6000602082019050612ff96000830184612bec565b92915050565b600061300961301a565b90506130158282613258565b919050565b6000604051905090565b600067ffffffffffffffff82111561303f5761303e613390565b5b613048826133bf565b9050602081019050919050565b600081519050919050565b600081519050919050565b600082825260208201905092915050565b600081905092915050565b600082825260208201905092915050565b600081905092915050565b60006130ae826131da565b91506130b9836131da565b9250827fffffffffffffffffffffffffffffffffffffffffffffffffffffffffffffffff038211156130ee576130ed613303565b5b828201905092915050565b6000613104826131da565b915061310f836131da565b92508261311f5761311e613332565b5b828204905092915050565b6000613135826131da565b9150613140836131da565b92508282101561315357613152613303565b5b828203905092915050565b6000613169826131ba565b9050919050565b600061317b826131ba565b9050919050565b60008115159050919050565b60007fffffffff0000000000000000000000000000000000000000000000000000000082169050919050565b600073ffffffffffffffffffffffffffffffffffffffff82169050919050565b6000819050919050565b82818337600083830152505050565b60005b838110156132115780820151818401526020810190506131f6565b83811115613220576000848401525b50505050565b6000600282049050600182168061323e57607f821691505b6020821081141561325257613251613361565b5b50919050565b613261826133bf565b810181811067ffffffffffffffff821117156132805761327f613390565b5b80604052505050565b6000613294826131da565b91507fffffffffffffffffffffffffffffffffffffffffffffffffffffffffffffffff8214156132c7576132c6613303565b5b600182019050919050565b60006132dd826131da565b91506132e8836131da565b9250826132f8576132f7613332565b5b828206905092915050565b7f4e487b7100000000000000000000000000000000000000000000000000000000600052601160045260246000fd5b7f4e487b7100000000000000000000000000000000000000000000000000000000600052601260045260246000fd5b7f4e487b7100000000000000000000000000000000000000000000000000000000600052602260045260246000fd5b7f4e487b7100000000000000000000000000000000000000000000000000000000600052604160045260246000fd5b6000601f19601f8301169050919050565b7f455243373231456e756d657261626c653a206f776e657220696e646578206f7560008201527f74206f6620626f756e6473000000000000000000000000000000000000000000602082015250565b7f4552433732313a207472616e7366657220746f206e6f6e20455243373231526560008201527f63656976657220696d706c656d656e7465720000000000000000000000000000602082015250565b7f4f776e61626c653a206e6577206f776e657220697320746865207a65726f206160008201527f6464726573730000000000000000000000000000000000000000000000000000602082015250565b7f4552433732313a207472616e736665722066726f6d20696e636f72726563742060008201527f6f776e6572000000000000000000000000000000000000000000000000000000602082015250565b7f4552433732313a20746f6b656e20616c7265616479206d696e74656400000000600082015250565b7f4552433732313a207472616e7366657220746f20746865207a65726f2061646460008201527f7265737300000000000000000000000000000000000000000000000000000000602082015250565b7f4552433732313a20617070726f766520746f2063616c6c657200000000000000600082015250565b7f416464726573733a20756e61626c6520746f2073656e642076616c75652c207260008201527f6563697069656e74206d61792068617665207265766572746564000000000000602082015250565b7f416464726573733a20696e73756666696369656e742062616c616e6365000000600082015250565b7f4552433732313a206f70657261746f7220717565727920666f72206e6f6e657860008201527f697374656e7420746f6b656e0000000000000000000000000000000000000000602082015250565b7f556e61626c6520746f206d696e74206d6f7265207468616e206f6e6500000000600082015250565b7f496e73756666696369656e742066756e64730000000000000000000000000000600082015250565b7f4552433732313a20617070726f76652063616c6c6572206973206e6f74206f7760008201527f6e6572206e6f7220617070726f76656420666f7220616c6c0000000000000000602082015250565b7f4552433732313a2062616c616e636520717565727920666f7220746865207a6560008201527f726f206164647265737300000000000000000000000000000000000000000000602082015250565b7f4552433732313a206f776e657220717565727920666f72206e6f6e657869737460008201527f656e7420746f6b656e0000000000000000000000000000000000000000000000602082015250565b7f4552433732313a206d696e7420746f20746865207a65726f2061646472657373600082015250565b7f4552433732313a20617070726f76656420717565727920666f72206e6f6e657860008201527f697374656e7420746f6b656e0000000000000000000000000000000000000000602082015250565b7f4f776e61626c653a2063616c6c6572206973206e6f7420746865206f776e6572600082015250565b7f4552433732314d657461646174613a2055524920717565727920666f72206e6f60008201527f6e6578697374656e7420746f6b656e0000000000000000000000000000000000602082015250565b7f4552433732313a20617070726f76616c20746f2063757272656e74206f776e6560008201527f7200000000000000000000000000000000000000000000000000000000000000602082015250565b50565b7f4552433732313a207472616e736665722063616c6c6572206973206e6f74206f60008201527f776e6572206e6f7220617070726f766564000000000000000000000000000000602082015250565b7f455243373231456e756d657261626c653a20676c6f62616c20696e646578206f60008201527f7574206f6620626f756e64730000000000000000000000000000000000000000602082015250565b61399c8161315e565b81146139a757600080fd5b50565b6139b381613170565b81146139be57600080fd5b50565b6139ca81613182565b81146139d557600080fd5b50565b6139e18161318e565b81146139ec57600080fd5b50565b6139f8816131da565b8114613a0357600080fd5b5056fea2646970667358221220f822c8e4b9d76cdb06c3572ad0120a611d491db48471bcc7f65b90120a16f88f64736f6c63430008040033",
  "linkReferences": {},
  "deployedLinkReferences": {}
}