{
  "_format": "hh-sol-artifact-1",
  "contractName": "TrailMixNFT",
  "sourceName": "contracts/TrailMixNFT.sol",
  "abi": [
    {
      "inputs": [
        {
          "internalType": "string",
          "name": "name",
          "type": "string"
        },
        {
          "internalType": "string",
          "name": "symbol",
          "type": "string"
        }
      ],
      "stateMutability": "nonpayable",
      "type": "constructor"
    },
    {
      "anonymous": false,
      "inputs": [
        {
          "indexed": true,
          "internalType": "address",
          "name": "owner",
          "type": "address"
        },
        {
          "indexed": true,
          "internalType": "address",
          "name": "approved",
          "type": "address"
        },
        {
          "indexed": true,
          "internalType": "uint256",
          "name": "tokenId",
          "type": "uint256"
        }
      ],
      "name": "Approval",
      "type": "event"
    },
    {
      "anonymous": false,
      "inputs": [
        {
          "indexed": true,
          "internalType": "address",
          "name": "owner",
          "type": "address"
        },
        {
          "indexed": true,
          "internalType": "address",
          "name": "operator",
          "type": "address"
        },
        {
          "indexed": false,
          "internalType": "bool",
          "name": "approved",
          "type": "bool"
        }
      ],
      "name": "ApprovalForAll",
      "type": "event"
    },
    {
      "anonymous": false,
      "inputs": [
        {
          "indexed": true,
          "internalType": "address",
          "name": "previousOwner",
          "type": "address"
        },
        {
          "indexed": true,
          "internalType": "address",
          "name": "newOwner",
          "type": "address"
        }
      ],
      "name": "OwnershipTransferred",
      "type": "event"
    },
    {
      "anonymous": false,
      "inputs": [
        {
          "indexed": true,
          "internalType": "address",
          "name": "from",
          "type": "address"
        },
        {
          "indexed": true,
          "internalType": "address",
          "name": "to",
          "type": "address"
        },
        {
          "indexed": true,
          "internalType": "uint256",
          "name": "tokenId",
          "type": "uint256"
        }
      ],
      "name": "Transfer",
      "type": "event"
    },
    {
      "inputs": [],
      "name": "_collectionURI",
      "outputs": [
        {
          "internalType": "string",
          "name": "",
          "type": "string"
        }
      ],
      "stateMutability": "view",
      "type": "function"
    },
    {
      "inputs": [
        {
          "internalType": "address",
          "name": "to",
          "type": "address"
        },
        {
          "internalType": "uint256",
          "name": "tokenId",
          "type": "uint256"
        }
      ],
      "name": "approve",
      "outputs": [],
      "stateMutability": "nonpayable",
      "type": "function"
    },
    {
      "inputs": [
        {
          "internalType": "address",
          "name": "owner",
          "type": "address"
        }
      ],
      "name": "balanceOf",
      "outputs": [
        {
          "internalType": "uint256",
          "name": "",
          "type": "uint256"
        }
      ],
      "stateMutability": "view",
      "type": "function"
    },
    {
      "inputs": [
        {
          "internalType": "uint256",
          "name": "tokenId",
          "type": "uint256"
        }
      ],
      "name": "getApproved",
      "outputs": [
        {
          "internalType": "address",
          "name": "",
          "type": "address"
        }
      ],
      "stateMutability": "view",
      "type": "function"
    },
    {
      "inputs": [
        {
          "internalType": "address",
          "name": "owner",
          "type": "address"
        },
        {
          "internalType": "address",
          "name": "operator",
          "type": "address"
        }
      ],
      "name": "isApprovedForAll",
      "outputs": [
        {
          "internalType": "bool",
          "name": "",
          "type": "bool"
        }
      ],
      "stateMutability": "view",
      "type": "function"
    },
    {
      "inputs": [],
      "name": "mint",
      "outputs": [],
      "stateMutability": "payable",
      "type": "function"
    },
    {
      "inputs": [],
      "name": "mintPrice",
      "outputs": [
        {
          "internalType": "uint256",
          "name": "",
          "type": "uint256"
        }
      ],
      "stateMutability": "view",
      "type": "function"
    },
    {
      "inputs": [],
      "name": "name",
      "outputs": [
        {
          "internalType": "string",
          "name": "",
          "type": "string"
        }
      ],
      "stateMutability": "view",
      "type": "function"
    },
    {
      "inputs": [],
      "name": "owner",
      "outputs": [
        {
          "internalType": "address",
          "name": "",
          "type": "address"
        }
      ],
      "stateMutability": "view",
      "type": "function"
    },
    {
      "inputs": [
        {
          "internalType": "uint256",
          "name": "tokenId",
          "type": "uint256"
        }
      ],
      "name": "ownerOf",
      "outputs": [
        {
          "internalType": "address",
          "name": "",
          "type": "address"
        }
      ],
      "stateMutability": "view",
      "type": "function"
    },
    {
      "inputs": [],
      "name": "renounceOwnership",
      "outputs": [],
      "stateMutability": "nonpayable",
      "type": "function"
    },
    {
      "inputs": [
        {
          "internalType": "address",
          "name": "from",
          "type": "address"
        },
        {
          "internalType": "address",
          "name": "to",
          "type": "address"
        },
        {
          "internalType": "uint256",
          "name": "tokenId",
          "type": "uint256"
        }
      ],
      "name": "safeTransferFrom",
      "outputs": [],
      "stateMutability": "nonpayable",
      "type": "function"
    },
    {
      "inputs": [
        {
          "internalType": "address",
          "name": "from",
          "type": "address"
        },
        {
          "internalType": "address",
          "name": "to",
          "type": "address"
        },
        {
          "internalType": "uint256",
          "name": "tokenId",
          "type": "uint256"
        },
        {
          "internalType": "bytes",
          "name": "_data",
          "type": "bytes"
        }
      ],
      "name": "safeTransferFrom",
      "outputs": [],
      "stateMutability": "nonpayable",
      "type": "function"
    },
    {
      "inputs": [
        {
          "internalType": "address",
          "name": "operator",
          "type": "address"
        },
        {
          "internalType": "bool",
          "name": "approved",
          "type": "bool"
        }
      ],
      "name": "setApprovalForAll",
      "outputs": [],
      "stateMutability": "nonpayable",
      "type": "function"
    },
    {
      "inputs": [
        {
          "internalType": "string",
          "name": "collectionURI",
          "type": "string"
        }
      ],
      "name": "setCollectionURI",
      "outputs": [],
      "stateMutability": "nonpayable",
      "type": "function"
    },
    {
      "inputs": [
        {
          "internalType": "bytes4",
          "name": "interfaceId",
          "type": "bytes4"
        }
      ],
      "name": "supportsInterface",
      "outputs": [
        {
          "internalType": "bool",
          "name": "",
          "type": "bool"
        }
      ],
      "stateMutability": "view",
      "type": "function"
    },
    {
      "inputs": [],
      "name": "symbol",
      "outputs": [
        {
          "internalType": "string",
          "name": "",
          "type": "string"
        }
      ],
      "stateMutability": "view",
      "type": "function"
    },
    {
      "inputs": [
        {
          "internalType": "uint256",
          "name": "index",
          "type": "uint256"
        }
      ],
      "name": "tokenByIndex",
      "outputs": [
        {
          "internalType": "uint256",
          "name": "",
          "type": "uint256"
        }
      ],
      "stateMutability": "view",
      "type": "function"
    },
    {
      "inputs": [
        {
          "internalType": "address",
          "name": "owner",
          "type": "address"
        },
        {
          "internalType": "uint256",
          "name": "index",
          "type": "uint256"
        }
      ],
      "name": "tokenOfOwnerByIndex",
      "outputs": [
        {
          "internalType": "uint256",
          "name": "",
          "type": "uint256"
        }
      ],
      "stateMutability": "view",
      "type": "function"
    },
    {
      "inputs": [
        {
          "internalType": "uint256",
          "name": "tokenId",
          "type": "uint256"
        }
      ],
      "name": "tokenURI",
      "outputs": [
        {
          "internalType": "string",
          "name": "",
          "type": "string"
        }
      ],
      "stateMutability": "view",
      "type": "function"
    },
    {
      "inputs": [],
      "name": "totalSupply",
      "outputs": [
        {
          "internalType": "uint256",
          "name": "",
          "type": "uint256"
        }
      ],
      "stateMutability": "view",
      "type": "function"
    },
    {
      "inputs": [
        {
          "internalType": "address",
          "name": "from",
          "type": "address"
        },
        {
          "internalType": "address",
          "name": "to",
          "type": "address"
        },
        {
          "internalType": "uint256",
          "name": "tokenId",
          "type": "uint256"
        }
      ],
      "name": "transferFrom",
      "outputs": [],
      "stateMutability": "nonpayable",
      "type": "function"
    },
    {
      "inputs": [
        {
          "internalType": "address",
          "name": "newOwner",
          "type": "address"
        }
      ],
      "name": "transferOwnership",
      "outputs": [],
      "stateMutability": "nonpayable",
      "type": "function"
    },
    {
      "inputs": [
        {
          "internalType": "address",
          "name": "asset",
          "type": "address"
        }
      ],
      "name": "withdraw",
      "outputs": [],
      "stateMutability": "nonpayable",
      "type": "function"
    }
  ],
  "bytecode": "0x608060405266b1a2bc2ec50000600c5560405180602001604052806000815250600d90805190602001906200003692919062000196565b503480156200004457600080fd5b50604051620042ee380380620042ee83398181016040528101906200006a9190620002b8565b818181600090805190602001906200008492919062000196565b5080600190805190602001906200009d92919062000196565b505050620000c0620000b4620000c860201b60201c565b620000d060201b60201c565b50506200049b565b600033905090565b6000600a60009054906101000a900473ffffffffffffffffffffffffffffffffffffffff16905081600a60006101000a81548173ffffffffffffffffffffffffffffffffffffffff021916908373ffffffffffffffffffffffffffffffffffffffff1602179055508173ffffffffffffffffffffffffffffffffffffffff168173ffffffffffffffffffffffffffffffffffffffff167f8be0079c531659141344cd1fd0a4f28419497f9722a3daafe3b4186f6b6457e060405160405180910390a35050565b828054620001a490620003c0565b90600052602060002090601f016020900481019282620001c8576000855562000214565b82601f10620001e357805160ff191683800117855562000214565b8280016001018555821562000214579182015b8281111562000213578251825591602001919060010190620001f6565b5b50905062000223919062000227565b5090565b5b808211156200024257600081600090555060010162000228565b5090565b60006200025d620002578462000354565b6200032b565b9050828152602081018484840111156200027657600080fd5b620002838482856200038a565b509392505050565b600082601f8301126200029d57600080fd5b8151620002af84826020860162000246565b91505092915050565b60008060408385031215620002cc57600080fd5b600083015167ffffffffffffffff811115620002e757600080fd5b620002f5858286016200028b565b925050602083015167ffffffffffffffff8111156200031357600080fd5b62000321858286016200028b565b9150509250929050565b6000620003376200034a565b9050620003458282620003f6565b919050565b6000604051905090565b600067ffffffffffffffff8211156200037257620003716200045b565b5b6200037d826200048a565b9050602081019050919050565b60005b83811015620003aa5780820151818401526020810190506200038d565b83811115620003ba576000848401525b50505050565b60006002820490506001821680620003d957607f821691505b60208210811415620003f057620003ef6200042c565b5b50919050565b62000401826200048a565b810181811067ffffffffffffffff821117156200042357620004226200045b565b5b80604052505050565b7f4e487b7100000000000000000000000000000000000000000000000000000000600052602260045260246000fd5b7f4e487b7100000000000000000000000000000000000000000000000000000000600052604160045260246000fd5b6000601f19601f8301169050919050565b613e4380620004ab6000396000f3fe60806040526004361061014b5760003560e01c806351cff8d9116100b657806395d89b411161006f57806395d89b4114610483578063a22cb465146104ae578063b88d4fde146104d7578063c87b56dd14610500578063e985e9c51461053d578063f2fde38b1461057a5761014b565b806351cff8d9146103735780636352211e1461039c5780636817c76c146103d957806370a0823114610404578063715018a6146104415780638da5cb5b146104585761014b565b806323b872dd1161010857806323b872dd146102535780632639f4601461027c5780632f745c59146102a557806342842e0e146102e25780634347c96a1461030b5780634f6ccce7146103365761014b565b806301ffc9a71461015057806306fdde031461018d578063081812fc146101b8578063095ea7b3146101f55780631249c58b1461021e57806318160ddd14610228575b600080fd5b34801561015c57600080fd5b5061017760048036038101906101729190612b43565b6105a3565b60405161018491906130e6565b60405180910390f35b34801561019957600080fd5b506101a261061d565b6040516101af9190613101565b60405180910390f35b3480156101c457600080fd5b506101df60048036038101906101da9190612bd6565b6106af565b6040516101ec9190613056565b60405180910390f35b34801561020157600080fd5b5061021c60048036038101906102179190612ade565b610734565b005b61022661084c565b005b34801561023457600080fd5b5061023d6108fa565b60405161024a91906133e3565b60405180910390f35b34801561025f57600080fd5b5061027a600480360381019061027591906129d8565b610907565b005b34801561028857600080fd5b506102a3600480360381019061029e9190612b95565b610967565b005b3480156102b157600080fd5b506102cc60048036038101906102c79190612ade565b6109fd565b6040516102d991906133e3565b60405180910390f35b3480156102ee57600080fd5b50610309600480360381019061030491906129d8565b610aa2565b005b34801561031757600080fd5b50610320610ac2565b60405161032d9190613101565b60405180910390f35b34801561034257600080fd5b5061035d60048036038101906103589190612bd6565b610b50565b60405161036a91906133e3565b60405180910390f35b34801561037f57600080fd5b5061039a60048036038101906103959190612973565b610be7565b005b3480156103a857600080fd5b506103c360048036038101906103be9190612bd6565b610dc7565b6040516103d09190613056565b60405180910390f35b3480156103e557600080fd5b506103ee610e79565b6040516103fb91906133e3565b60405180910390f35b34801561041057600080fd5b5061042b60048036038101906104269190612973565b610e7f565b60405161043891906133e3565b60405180910390f35b34801561044d57600080fd5b50610456610f37565b005b34801561046457600080fd5b5061046d610fbf565b60405161047a9190613056565b60405180910390f35b34801561048f57600080fd5b50610498610fe9565b6040516104a59190613101565b60405180910390f35b3480156104ba57600080fd5b506104d560048036038101906104d09190612aa2565b61107b565b005b3480156104e357600080fd5b506104fe60048036038101906104f99190612a27565b611091565b005b34801561050c57600080fd5b5061052760048036038101906105229190612bd6565b6110f3565b6040516105349190613101565b60405180910390f35b34801561054957600080fd5b50610564600480360381019061055f919061299c565b61119a565b60405161057191906130e6565b60405180910390f35b34801561058657600080fd5b506105a1600480360381019061059c9190612973565b61122e565b005b60007f780e9d63000000000000000000000000000000000000000000000000000000007bffffffffffffffffffffffffffffffffffffffffffffffffffffffff1916827bffffffffffffffffffffffffffffffffffffffffffffffffffffffff19161480610616575061061582611326565b5b9050919050565b60606000805461062c90613644565b80601f016020809104026020016040519081016040528092919081815260200182805461065890613644565b80156106a55780601f1061067a576101008083540402835291602001916106a5565b820191906000526020600020905b81548152906001019060200180831161068857829003601f168201915b5050505050905090565b60006106ba82611408565b6106f9576040517f08c379a00000000000000000000000000000000000000000000000000000000081526004016106f090613323565b60405180910390fd5b6004600083815260200190815260200160002060009054906101000a900473ffffffffffffffffffffffffffffffffffffffff169050919050565b600061073f82610dc7565b90508073ffffffffffffffffffffffffffffffffffffffff168373ffffffffffffffffffffffffffffffffffffffff1614156107b0576040517f08c379a00000000000000000000000000000000000000000000000000000000081526004016107a790613383565b60405180910390fd5b8073ffffffffffffffffffffffffffffffffffffffff166107cf611474565b73ffffffffffffffffffffffffffffffffffffffff1614806107fe57506107fd816107f8611474565b61119a565b5b61083d576040517f08c379a0000000000000000000000000000000000000000000000000000000008152600401610834906132a3565b60405180910390fd5b610847838361147c565b505050565b600061085733610e7f565b14610897576040517f08c379a000000000000000000000000000000000000000000000000000000000815260040161088e90613263565b60405180910390fd5b600c5434146108db576040517f08c379a00000000000000000000000000000000000000000000000000000000081526004016108d290613283565b60405180910390fd5b6108e5600b611535565b6108f8336108f3600b61154b565b611559565b565b6000600880549050905090565b610918610912611474565b82611577565b610957576040517f08c379a000000000000000000000000000000000000000000000000000000000815260040161094e906133a3565b60405180910390fd5b610962838383611655565b505050565b61096f611474565b73ffffffffffffffffffffffffffffffffffffffff1661098d610fbf565b73ffffffffffffffffffffffffffffffffffffffff16146109e3576040517f08c379a00000000000000000000000000000000000000000000000000000000081526004016109da90613343565b60405180910390fd5b80600d90805190602001906109f992919061276d565b5050565b6000610a0883610e7f565b8210610a49576040517f08c379a0000000000000000000000000000000000000000000000000000000008152600401610a4090613123565b60405180910390fd5b600660008473ffffffffffffffffffffffffffffffffffffffff1673ffffffffffffffffffffffffffffffffffffffff168152602001908152602001600020600083815260200190815260200160002054905092915050565b610abd83838360405180602001604052806000815250611091565b505050565b600d8054610acf90613644565b80601f0160208091040260200160405190810160405280929190818152602001828054610afb90613644565b8015610b485780601f10610b1d57610100808354040283529160200191610b48565b820191906000526020600020905b815481529060010190602001808311610b2b57829003601f168201915b505050505081565b6000610b5a6108fa565b8210610b9b576040517f08c379a0000000000000000000000000000000000000000000000000000000008152600401610b92906133c3565b60405180910390fd5b60088281548110610bd5577f4e487b7100000000000000000000000000000000000000000000000000000000600052603260045260246000fd5b90600052602060002001549050919050565b610bef611474565b73ffffffffffffffffffffffffffffffffffffffff16610c0d610fbf565b73ffffffffffffffffffffffffffffffffffffffff1614610c63576040517f08c379a0000000000000000000000000000000000000000000000000000000008152600401610c5a90613343565b60405180910390fd5b600073ffffffffffffffffffffffffffffffffffffffff168173ffffffffffffffffffffffffffffffffffffffff161415610ca757610ca233476118bc565b610dc4565b60008173ffffffffffffffffffffffffffffffffffffffff166370a08231306040518263ffffffff1660e01b8152600401610ce29190613056565b60206040518083038186803b158015610cfa57600080fd5b505afa158015610d0e573d6000803e3d6000fd5b505050506040513d601f19601f82011682018060405250810190610d329190612bff565b90508173ffffffffffffffffffffffffffffffffffffffff1663a9059cbb33836040518363ffffffff1660e01b8152600401610d6f9291906130bd565b602060405180830381600087803b158015610d8957600080fd5b505af1158015610d9d573d6000803e3d6000fd5b505050506040513d601f19601f82011682018060405250810190610dc19190612b1a565b50505b50565b6000806002600084815260200190815260200160002060009054906101000a900473ffffffffffffffffffffffffffffffffffffffff169050600073ffffffffffffffffffffffffffffffffffffffff168173ffffffffffffffffffffffffffffffffffffffff161415610e70576040517f08c379a0000000000000000000000000000000000000000000000000000000008152600401610e67906132e3565b60405180910390fd5b80915050919050565b600c5481565b60008073ffffffffffffffffffffffffffffffffffffffff168273ffffffffffffffffffffffffffffffffffffffff161415610ef0576040517f08c379a0000000000000000000000000000000000000000000000000000000008152600401610ee7906132c3565b60405180910390fd5b600360008373ffffffffffffffffffffffffffffffffffffffff1673ffffffffffffffffffffffffffffffffffffffff168152602001908152602001600020549050919050565b610f3f611474565b73ffffffffffffffffffffffffffffffffffffffff16610f5d610fbf565b73ffffffffffffffffffffffffffffffffffffffff1614610fb3576040517f08c379a0000000000000000000000000000000000000000000000000000000008152600401610faa90613343565b60405180910390fd5b610fbd60006119b0565b565b6000600a60009054906101000a900473ffffffffffffffffffffffffffffffffffffffff16905090565b606060018054610ff890613644565b80601f016020809104026020016040519081016040528092919081815260200182805461102490613644565b80156110715780601f1061104657610100808354040283529160200191611071565b820191906000526020600020905b81548152906001019060200180831161105457829003601f168201915b5050505050905090565b61108d611086611474565b8383611a76565b5050565b6110a261109c611474565b83611577565b6110e1576040517f08c379a00000000000000000000000000000000000000000000000000000000081526004016110d8906133a3565b60405180910390fd5b6110ed84848484611be3565b50505050565b60606110fe82611408565b61113d576040517f08c379a000000000000000000000000000000000000000000000000000000000815260040161113490613363565b60405180910390fd5b6000611147611c3f565b905060008151116111675760405180602001604052806000815250611192565b8061117184611cd1565b60405160200161118292919061301d565b6040516020818303038152906040525b915050919050565b6000600560008473ffffffffffffffffffffffffffffffffffffffff1673ffffffffffffffffffffffffffffffffffffffff16815260200190815260200160002060008373ffffffffffffffffffffffffffffffffffffffff1673ffffffffffffffffffffffffffffffffffffffff16815260200190815260200160002060009054906101000a900460ff16905092915050565b611236611474565b73ffffffffffffffffffffffffffffffffffffffff16611254610fbf565b73ffffffffffffffffffffffffffffffffffffffff16146112aa576040517f08c379a00000000000000000000000000000000000000000000000000000000081526004016112a190613343565b60405180910390fd5b600073ffffffffffffffffffffffffffffffffffffffff168173ffffffffffffffffffffffffffffffffffffffff16141561131a576040517f08c379a000000000000000000000000000000000000000000000000000000000815260040161131190613163565b60405180910390fd5b611323816119b0565b50565b60007f80ac58cd000000000000000000000000000000000000000000000000000000007bffffffffffffffffffffffffffffffffffffffffffffffffffffffff1916827bffffffffffffffffffffffffffffffffffffffffffffffffffffffff191614806113f157507f5b5e139f000000000000000000000000000000000000000000000000000000007bffffffffffffffffffffffffffffffffffffffffffffffffffffffff1916827bffffffffffffffffffffffffffffffffffffffffffffffffffffffff1916145b80611401575061140082611e7e565b5b9050919050565b60008073ffffffffffffffffffffffffffffffffffffffff166002600084815260200190815260200160002060009054906101000a900473ffffffffffffffffffffffffffffffffffffffff1673ffffffffffffffffffffffffffffffffffffffff1614159050919050565b600033905090565b816004600083815260200190815260200160002060006101000a81548173ffffffffffffffffffffffffffffffffffffffff021916908373ffffffffffffffffffffffffffffffffffffffff160217905550808273ffffffffffffffffffffffffffffffffffffffff166114ef83610dc7565b73ffffffffffffffffffffffffffffffffffffffff167f8c5be1e5ebec7d5bd14f71427d1e84f3dd0314c0f7b2291e5b200ac8c7c3b92560405160405180910390a45050565b6001816000016000828254019250508190555050565b600081600001549050919050565b611573828260405180602001604052806000815250611ee8565b5050565b600061158282611408565b6115c1576040517f08c379a00000000000000000000000000000000000000000000000000000000081526004016115b890613243565b60405180910390fd5b60006115cc83610dc7565b90508073ffffffffffffffffffffffffffffffffffffffff168473ffffffffffffffffffffffffffffffffffffffff16148061163b57508373ffffffffffffffffffffffffffffffffffffffff16611623846106af565b73ffffffffffffffffffffffffffffffffffffffff16145b8061164c575061164b818561119a565b5b91505092915050565b8273ffffffffffffffffffffffffffffffffffffffff1661167582610dc7565b73ffffffffffffffffffffffffffffffffffffffff16146116cb576040517f08c379a00000000000000000000000000000000000000000000000000000000081526004016116c290613183565b60405180910390fd5b600073ffffffffffffffffffffffffffffffffffffffff168273ffffffffffffffffffffffffffffffffffffffff16141561173b576040517f08c379a0000000000000000000000000000000000000000000000000000000008152600401611732906131c3565b60405180910390fd5b611746838383611f43565b61175160008261147c565b6001600360008573ffffffffffffffffffffffffffffffffffffffff1673ffffffffffffffffffffffffffffffffffffffff16815260200190815260200160002060008282546117a1919061355a565b925050819055506001600360008473ffffffffffffffffffffffffffffffffffffffff1673ffffffffffffffffffffffffffffffffffffffff16815260200190815260200160002060008282546117f891906134d3565b92505081905550816002600083815260200190815260200160002060006101000a81548173ffffffffffffffffffffffffffffffffffffffff021916908373ffffffffffffffffffffffffffffffffffffffff160217905550808273ffffffffffffffffffffffffffffffffffffffff168473ffffffffffffffffffffffffffffffffffffffff167fddf252ad1be2c89b69c2b068fc378daa952ba7f163c4a11628f55a4df523b3ef60405160405180910390a46118b7838383612057565b505050565b804710156118ff576040517f08c379a00000000000000000000000000000000000000000000000000000000081526004016118f690613223565b60405180910390fd5b60008273ffffffffffffffffffffffffffffffffffffffff168260405161192590613041565b60006040518083038185875af1925050503d8060008114611962576040519150601f19603f3d011682016040523d82523d6000602084013e611967565b606091505b50509050806119ab576040517f08c379a00000000000000000000000000000000000000000000000000000000081526004016119a290613203565b60405180910390fd5b505050565b6000600a60009054906101000a900473ffffffffffffffffffffffffffffffffffffffff16905081600a60006101000a81548173ffffffffffffffffffffffffffffffffffffffff021916908373ffffffffffffffffffffffffffffffffffffffff1602179055508173ffffffffffffffffffffffffffffffffffffffff168173ffffffffffffffffffffffffffffffffffffffff167f8be0079c531659141344cd1fd0a4f28419497f9722a3daafe3b4186f6b6457e060405160405180910390a35050565b8173ffffffffffffffffffffffffffffffffffffffff168373ffffffffffffffffffffffffffffffffffffffff161415611ae5576040517f08c379a0000000000000000000000000000000000000000000000000000000008152600401611adc906131e3565b60405180910390fd5b80600560008573ffffffffffffffffffffffffffffffffffffffff1673ffffffffffffffffffffffffffffffffffffffff16815260200190815260200160002060008473ffffffffffffffffffffffffffffffffffffffff1673ffffffffffffffffffffffffffffffffffffffff16815260200190815260200160002060006101000a81548160ff0219169083151502179055508173ffffffffffffffffffffffffffffffffffffffff168373ffffffffffffffffffffffffffffffffffffffff167f17307eab39ab6107e8899845ad3d59bd9653f200f220920489ca2b5937696c3183604051611bd691906130e6565b60405180910390a3505050565b611bee848484611655565b611bfa8484848461205c565b611c39576040517f08c379a0000000000000000000000000000000000000000000000000000000008152600401611c3090613143565b60405180910390fd5b50505050565b6060600d8054611c4e90613644565b80601f0160208091040260200160405190810160405280929190818152602001828054611c7a90613644565b8015611cc75780601f10611c9c57610100808354040283529160200191611cc7565b820191906000526020600020905b815481529060010190602001808311611caa57829003601f168201915b5050505050905090565b60606000821415611d19576040518060400160405280600181526020017f30000000000000000000000000000000000000000000000000000000000000008152509050611e79565b600082905060005b60008214611d4b578080611d34906136a7565b915050600a82611d449190613529565b9150611d21565b60008167ffffffffffffffff811115611d8d577f4e487b7100000000000000000000000000000000000000000000000000000000600052604160045260246000fd5b6040519080825280601f01601f191660200182016040528015611dbf5781602001600182028036833780820191505090505b5090505b60008514611e7257600182611dd8919061355a565b9150600a85611de791906136f0565b6030611df391906134d3565b60f81b818381518110611e2f577f4e487b7100000000000000000000000000000000000000000000000000000000600052603260045260246000fd5b60200101907effffffffffffffffffffffffffffffffffffffffffffffffffffffffffffff1916908160001a905350600a85611e6b9190613529565b9450611dc3565b8093505050505b919050565b60007f01ffc9a7000000000000000000000000000000000000000000000000000000007bffffffffffffffffffffffffffffffffffffffffffffffffffffffff1916827bffffffffffffffffffffffffffffffffffffffffffffffffffffffff1916149050919050565b611ef283836121f3565b611eff600084848461205c565b611f3e576040517f08c379a0000000000000000000000000000000000000000000000000000000008152600401611f3590613143565b60405180910390fd5b505050565b611f4e8383836123cd565b600073ffffffffffffffffffffffffffffffffffffffff168373ffffffffffffffffffffffffffffffffffffffff161415611f9157611f8c816123d2565b611fd0565b8173ffffffffffffffffffffffffffffffffffffffff168373ffffffffffffffffffffffffffffffffffffffff1614611fcf57611fce838261241b565b5b5b600073ffffffffffffffffffffffffffffffffffffffff168273ffffffffffffffffffffffffffffffffffffffff1614156120135761200e81612588565b612052565b8273ffffffffffffffffffffffffffffffffffffffff168273ffffffffffffffffffffffffffffffffffffffff16146120515761205082826126cb565b5b5b505050565b505050565b600061207d8473ffffffffffffffffffffffffffffffffffffffff1661274a565b156121e6578373ffffffffffffffffffffffffffffffffffffffff1663150b7a026120a6611474565b8786866040518563ffffffff1660e01b81526004016120c89493929190613071565b602060405180830381600087803b1580156120e257600080fd5b505af192505050801561211357506040513d601f19601f820116820180604052508101906121109190612b6c565b60015b612196573d8060008114612143576040519150601f19603f3d011682016040523d82523d6000602084013e612148565b606091505b5060008151141561218e576040517f08c379a000000000000000000000000000000000000000000000000000000000815260040161218590613143565b60405180910390fd5b805181602001fd5b63150b7a0260e01b7bffffffffffffffffffffffffffffffffffffffffffffffffffffffff1916817bffffffffffffffffffffffffffffffffffffffffffffffffffffffff1916149150506121eb565b600190505b949350505050565b600073ffffffffffffffffffffffffffffffffffffffff168273ffffffffffffffffffffffffffffffffffffffff161415612263576040517f08c379a000000000000000000000000000000000000000000000000000000000815260040161225a90613303565b60405180910390fd5b61226c81611408565b156122ac576040517f08c379a00000000000000000000000000000000000000000000000000000000081526004016122a3906131a3565b60405180910390fd5b6122b860008383611f43565b6001600360008473ffffffffffffffffffffffffffffffffffffffff1673ffffffffffffffffffffffffffffffffffffffff168152602001908152602001600020600082825461230891906134d3565b92505081905550816002600083815260200190815260200160002060006101000a81548173ffffffffffffffffffffffffffffffffffffffff021916908373ffffffffffffffffffffffffffffffffffffffff160217905550808273ffffffffffffffffffffffffffffffffffffffff16600073ffffffffffffffffffffffffffffffffffffffff167fddf252ad1be2c89b69c2b068fc378daa952ba7f163c4a11628f55a4df523b3ef60405160405180910390a46123c960008383612057565b5050565b505050565b6008805490506009600083815260200190815260200160002081905550600881908060018154018082558091505060019003906000526020600020016000909190919091505550565b6000600161242884610e7f565b612432919061355a565b9050600060076000848152602001908152602001600020549050818114612517576000600660008673ffffffffffffffffffffffffffffffffffffffff1673ffffffffffffffffffffffffffffffffffffffff168152602001908152602001600020600084815260200190815260200160002054905080600660008773ffffffffffffffffffffffffffffffffffffffff1673ffffffffffffffffffffffffffffffffffffffff168152602001908152602001600020600084815260200190815260200160002081905550816007600083815260200190815260200160002081905550505b6007600084815260200190815260200160002060009055600660008573ffffffffffffffffffffffffffffffffffffffff1673ffffffffffffffffffffffffffffffffffffffff16815260200190815260200160002060008381526020019081526020016000206000905550505050565b6000600160088054905061259c919061355a565b90506000600960008481526020019081526020016000205490506000600883815481106125f2577f4e487b7100000000000000000000000000000000000000000000000000000000600052603260045260246000fd5b90600052602060002001549050806008838154811061263a577f4e487b7100000000000000000000000000000000000000000000000000000000600052603260045260246000fd5b9060005260206000200181905550816009600083815260200190815260200160002081905550600960008581526020019081526020016000206000905560088054806126af577f4e487b7100000000000000000000000000000000000000000000000000000000600052603160045260246000fd5b6001900381819060005260206000200160009055905550505050565b60006126d683610e7f565b905081600660008573ffffffffffffffffffffffffffffffffffffffff1673ffffffffffffffffffffffffffffffffffffffff168152602001908152602001600020600083815260200190815260200160002081905550806007600084815260200190815260200160002081905550505050565b6000808273ffffffffffffffffffffffffffffffffffffffff163b119050919050565b82805461277990613644565b90600052602060002090601f01602090048101928261279b57600085556127e2565b82601f106127b457805160ff19168380011785556127e2565b828001600101855582156127e2579182015b828111156127e15782518255916020019190600101906127c6565b5b5090506127ef91906127f3565b5090565b5b8082111561280c5760008160009055506001016127f4565b5090565b600061282361281e84613423565b6133fe565b90508281526020810184848401111561283b57600080fd5b612846848285613602565b509392505050565b600061286161285c84613454565b6133fe565b90508281526020810184848401111561287957600080fd5b612884848285613602565b509392505050565b60008135905061289b81613db1565b92915050565b6000813590506128b081613dc8565b92915050565b6000815190506128c581613dc8565b92915050565b6000813590506128da81613ddf565b92915050565b6000815190506128ef81613ddf565b92915050565b600082601f83011261290657600080fd5b8135612916848260208601612810565b91505092915050565b600082601f83011261293057600080fd5b813561294084826020860161284e565b91505092915050565b60008135905061295881613df6565b92915050565b60008151905061296d81613df6565b92915050565b60006020828403121561298557600080fd5b60006129938482850161288c565b91505092915050565b600080604083850312156129af57600080fd5b60006129bd8582860161288c565b92505060206129ce8582860161288c565b9150509250929050565b6000806000606084860312156129ed57600080fd5b60006129fb8682870161288c565b9350506020612a0c8682870161288c565b9250506040612a1d86828701612949565b9150509250925092565b60008060008060808587031215612a3d57600080fd5b6000612a4b8782880161288c565b9450506020612a5c8782880161288c565b9350506040612a6d87828801612949565b925050606085013567ffffffffffffffff811115612a8a57600080fd5b612a96878288016128f5565b91505092959194509250565b60008060408385031215612ab557600080fd5b6000612ac38582860161288c565b9250506020612ad4858286016128a1565b9150509250929050565b60008060408385031215612af157600080fd5b6000612aff8582860161288c565b9250506020612b1085828601612949565b9150509250929050565b600060208284031215612b2c57600080fd5b6000612b3a848285016128b6565b91505092915050565b600060208284031215612b5557600080fd5b6000612b63848285016128cb565b91505092915050565b600060208284031215612b7e57600080fd5b6000612b8c848285016128e0565b91505092915050565b600060208284031215612ba757600080fd5b600082013567ffffffffffffffff811115612bc157600080fd5b612bcd8482850161291f565b91505092915050565b600060208284031215612be857600080fd5b6000612bf684828501612949565b91505092915050565b600060208284031215612c1157600080fd5b6000612c1f8482850161295e565b91505092915050565b612c318161358e565b82525050565b612c40816135a0565b82525050565b6000612c5182613485565b612c5b818561349b565b9350612c6b818560208601613611565b612c74816137dd565b840191505092915050565b6000612c8a82613490565b612c9481856134b7565b9350612ca4818560208601613611565b612cad816137dd565b840191505092915050565b6000612cc382613490565b612ccd81856134c8565b9350612cdd818560208601613611565b80840191505092915050565b6000612cf6602b836134b7565b9150612d01826137ee565b604082019050919050565b6000612d196032836134b7565b9150612d248261383d565b604082019050919050565b6000612d3c6026836134b7565b9150612d478261388c565b604082019050919050565b6000612d5f6025836134b7565b9150612d6a826138db565b604082019050919050565b6000612d82601c836134b7565b9150612d8d8261392a565b602082019050919050565b6000612da56024836134b7565b9150612db082613953565b604082019050919050565b6000612dc86019836134b7565b9150612dd3826139a2565b602082019050919050565b6000612deb603a836134b7565b9150612df6826139cb565b604082019050919050565b6000612e0e601d836134b7565b9150612e1982613a1a565b602082019050919050565b6000612e31602c836134b7565b9150612e3c82613a43565b604082019050919050565b6000612e54601c836134b7565b9150612e5f82613a92565b602082019050919050565b6000612e776012836134b7565b9150612e8282613abb565b602082019050919050565b6000612e9a6038836134b7565b9150612ea582613ae4565b604082019050919050565b6000612ebd602a836134b7565b9150612ec882613b33565b604082019050919050565b6000612ee06029836134b7565b9150612eeb82613b82565b604082019050919050565b6000612f036020836134b7565b9150612f0e82613bd1565b602082019050919050565b6000612f26602c836134b7565b9150612f3182613bfa565b604082019050919050565b6000612f496020836134b7565b9150612f5482613c49565b602082019050919050565b6000612f6c602f836134b7565b9150612f7782613c72565b604082019050919050565b6000612f8f6021836134b7565b9150612f9a82613cc1565b604082019050919050565b6000612fb26000836134ac565b9150612fbd82613d10565b600082019050919050565b6000612fd56031836134b7565b9150612fe082613d13565b604082019050919050565b6000612ff8602c836134b7565b915061300382613d62565b604082019050919050565b613017816135f8565b82525050565b60006130298285612cb8565b91506130358284612cb8565b91508190509392505050565b600061304c82612fa5565b9150819050919050565b600060208201905061306b6000830184612c28565b92915050565b60006080820190506130866000830187612c28565b6130936020830186612c28565b6130a0604083018561300e565b81810360608301526130b28184612c46565b905095945050505050565b60006040820190506130d26000830185612c28565b6130df602083018461300e565b9392505050565b60006020820190506130fb6000830184612c37565b92915050565b6000602082019050818103600083015261311b8184612c7f565b905092915050565b6000602082019050818103600083015261313c81612ce9565b9050919050565b6000602082019050818103600083015261315c81612d0c565b9050919050565b6000602082019050818103600083015261317c81612d2f565b9050919050565b6000602082019050818103600083015261319c81612d52565b9050919050565b600060208201905081810360008301526131bc81612d75565b9050919050565b600060208201905081810360008301526131dc81612d98565b9050919050565b600060208201905081810360008301526131fc81612dbb565b9050919050565b6000602082019050818103600083015261321c81612dde565b9050919050565b6000602082019050818103600083015261323c81612e01565b9050919050565b6000602082019050818103600083015261325c81612e24565b9050919050565b6000602082019050818103600083015261327c81612e47565b9050919050565b6000602082019050818103600083015261329c81612e6a565b9050919050565b600060208201905081810360008301526132bc81612e8d565b9050919050565b600060208201905081810360008301526132dc81612eb0565b9050919050565b600060208201905081810360008301526132fc81612ed3565b9050919050565b6000602082019050818103600083015261331c81612ef6565b9050919050565b6000602082019050818103600083015261333c81612f19565b9050919050565b6000602082019050818103600083015261335c81612f3c565b9050919050565b6000602082019050818103600083015261337c81612f5f565b9050919050565b6000602082019050818103600083015261339c81612f82565b9050919050565b600060208201905081810360008301526133bc81612fc8565b9050919050565b600060208201905081810360008301526133dc81612feb565b9050919050565b60006020820190506133f8600083018461300e565b92915050565b6000613408613419565b90506134148282613676565b919050565b6000604051905090565b600067ffffffffffffffff82111561343e5761343d6137ae565b5b613447826137dd565b9050602081019050919050565b600067ffffffffffffffff82111561346f5761346e6137ae565b5b613478826137dd565b9050602081019050919050565b600081519050919050565b600081519050919050565b600082825260208201905092915050565b600081905092915050565b600082825260208201905092915050565b600081905092915050565b60006134de826135f8565b91506134e9836135f8565b9250827fffffffffffffffffffffffffffffffffffffffffffffffffffffffffffffffff0382111561351e5761351d613721565b5b828201905092915050565b6000613534826135f8565b915061353f836135f8565b92508261354f5761354e613750565b5b828204905092915050565b6000613565826135f8565b9150613570836135f8565b92508282101561358357613582613721565b5b828203905092915050565b6000613599826135d8565b9050919050565b60008115159050919050565b60007fffffffff0000000000000000000000000000000000000000000000000000000082169050919050565b600073ffffffffffffffffffffffffffffffffffffffff82169050919050565b6000819050919050565b82818337600083830152505050565b60005b8381101561362f578082015181840152602081019050613614565b8381111561363e576000848401525b50505050565b6000600282049050600182168061365c57607f821691505b602082108114156136705761366f61377f565b5b50919050565b61367f826137dd565b810181811067ffffffffffffffff8211171561369e5761369d6137ae565b5b80604052505050565b60006136b2826135f8565b91507fffffffffffffffffffffffffffffffffffffffffffffffffffffffffffffffff8214156136e5576136e4613721565b5b600182019050919050565b60006136fb826135f8565b9150613706836135f8565b92508261371657613715613750565b5b828206905092915050565b7f4e487b7100000000000000000000000000000000000000000000000000000000600052601160045260246000fd5b7f4e487b7100000000000000000000000000000000000000000000000000000000600052601260045260246000fd5b7f4e487b7100000000000000000000000000000000000000000000000000000000600052602260045260246000fd5b7f4e487b7100000000000000000000000000000000000000000000000000000000600052604160045260246000fd5b6000601f19601f8301169050919050565b7f455243373231456e756d657261626c653a206f776e657220696e646578206f7560008201527f74206f6620626f756e6473000000000000000000000000000000000000000000602082015250565b7f4552433732313a207472616e7366657220746f206e6f6e20455243373231526560008201527f63656976657220696d706c656d656e7465720000000000000000000000000000602082015250565b7f4f776e61626c653a206e6577206f776e657220697320746865207a65726f206160008201527f6464726573730000000000000000000000000000000000000000000000000000602082015250565b7f4552433732313a207472616e736665722066726f6d20696e636f72726563742060008201527f6f776e6572000000000000000000000000000000000000000000000000000000602082015250565b7f4552433732313a20746f6b656e20616c7265616479206d696e74656400000000600082015250565b7f4552433732313a207472616e7366657220746f20746865207a65726f2061646460008201527f7265737300000000000000000000000000000000000000000000000000000000602082015250565b7f4552433732313a20617070726f766520746f2063616c6c657200000000000000600082015250565b7f416464726573733a20756e61626c6520746f2073656e642076616c75652c207260008201527f6563697069656e74206d61792068617665207265766572746564000000000000602082015250565b7f416464726573733a20696e73756666696369656e742062616c616e6365000000600082015250565b7f4552433732313a206f70657261746f7220717565727920666f72206e6f6e657860008201527f697374656e7420746f6b656e0000000000000000000000000000000000000000602082015250565b7f556e61626c6520746f206d696e74206d6f7265207468616e206f6e6500000000600082015250565b7f496e73756666696369656e742066756e64730000000000000000000000000000600082015250565b7f4552433732313a20617070726f76652063616c6c6572206973206e6f74206f7760008201527f6e6572206e6f7220617070726f76656420666f7220616c6c0000000000000000602082015250565b7f4552433732313a2062616c616e636520717565727920666f7220746865207a6560008201527f726f206164647265737300000000000000000000000000000000000000000000602082015250565b7f4552433732313a206f776e657220717565727920666f72206e6f6e657869737460008201527f656e7420746f6b656e0000000000000000000000000000000000000000000000602082015250565b7f4552433732313a206d696e7420746f20746865207a65726f2061646472657373600082015250565b7f4552433732313a20617070726f76656420717565727920666f72206e6f6e657860008201527f697374656e7420746f6b656e0000000000000000000000000000000000000000602082015250565b7f4f776e61626c653a2063616c6c6572206973206e6f7420746865206f776e6572600082015250565b7f4552433732314d657461646174613a2055524920717565727920666f72206e6f60008201527f6e6578697374656e7420746f6b656e0000000000000000000000000000000000602082015250565b7f4552433732313a20617070726f76616c20746f2063757272656e74206f776e6560008201527f7200000000000000000000000000000000000000000000000000000000000000602082015250565b50565b7f4552433732313a207472616e736665722063616c6c6572206973206e6f74206f60008201527f776e6572206e6f7220617070726f766564000000000000000000000000000000602082015250565b7f455243373231456e756d657261626c653a20676c6f62616c20696e646578206f60008201527f7574206f6620626f756e64730000000000000000000000000000000000000000602082015250565b613dba8161358e565b8114613dc557600080fd5b50565b613dd1816135a0565b8114613ddc57600080fd5b50565b613de8816135ac565b8114613df357600080fd5b50565b613dff816135f8565b8114613e0a57600080fd5b5056fea2646970667358221220ec364b0c3cac5f6f902d9c0f8e5d5dc4fecfb478be9d800704b5bf5704efc43864736f6c63430008040033",
  "linkReferences": {},
  "deployedLinkReferences": {}
}